{
  "contractName": "PPoL",
  "abi": [
    {
      "constant": true,
      "inputs": [],
      "name": "a",
      "outputs": [
        {
          "name": "",
          "type": "uint256"
        }
      ],
      "payable": false,
      "stateMutability": "view",
      "type": "function"
    },
    {
      "constant": true,
      "inputs": [
        {
          "name": "",
          "type": "address"
        }
      ],
      "name": "token_balance",
      "outputs": [
        {
          "name": "",
          "type": "uint256"
        }
      ],
      "payable": false,
      "stateMutability": "view",
      "type": "function"
    },
    {
      "constant": true,
      "inputs": [
        {
          "name": "",
          "type": "uint256"
        }
      ],
      "name": "lookup_pubkey_by_balance_populated",
      "outputs": [
        {
          "name": "",
          "type": "bool"
        }
      ],
      "payable": false,
      "stateMutability": "view",
      "type": "function"
    },
    {
      "constant": true,
      "inputs": [
        {
          "name": "",
          "type": "uint256"
        },
        {
          "name": "",
          "type": "uint256"
        }
      ],
      "name": "lookup_pubkey_by_balance",
      "outputs": [
        {
          "name": "",
          "type": "uint256"
        }
      ],
      "payable": false,
      "stateMutability": "view",
      "type": "function"
    },
    {
      "constant": true,
      "inputs": [
        {
          "name": "PubKey",
          "type": "uint256"
        }
      ],
      "name": "GetAddress",
      "outputs": [
        {
          "name": "addr",
          "type": "address"
        }
      ],
      "payable": false,
      "stateMutability": "view",
      "type": "function"
    },
    {
      "constant": true,
      "inputs": [
        {
          "name": "",
          "type": "uint256"
        }
      ],
      "name": "lookup_pubkey_by_balance_count",
      "outputs": [
        {
          "name": "",
          "type": "uint256"
        }
      ],
      "payable": false,
      "stateMutability": "view",
      "type": "function"
    },
    {
      "constant": true,
      "inputs": [
        {
          "name": "message",
          "type": "bytes"
        },
        {
          "name": "signature",
          "type": "uint256[]"
        }
      ],
      "name": "RingVerify_User",
      "outputs": [
        {
          "name": "success",
          "type": "bool"
        }
      ],
      "payable": false,
      "stateMutability": "view",
      "type": "function"
    },
    {
      "constant": true,
      "inputs": [
        {
          "name": "Pin",
          "type": "uint256"
        }
      ],
      "name": "ExpandPoint",
      "outputs": [
        {
          "name": "Pout",
          "type": "uint256[2]"
        }
      ],
      "payable": false,
      "stateMutability": "view",
      "type": "function"
    },
    {
      "constant": true,
      "inputs": [
        {
          "name": "x",
          "type": "uint256"
        }
      ],
      "name": "EvaluateCurve",
      "outputs": [
        {
          "name": "y",
          "type": "uint256"
        },
        {
          "name": "onCurve",
          "type": "bool"
        }
      ],
      "payable": false,
      "stateMutability": "view",
      "type": "function"
    },
    {
      "constant": true,
      "inputs": [
        {
          "name": "Pin",
          "type": "uint256[2]"
        }
      ],
      "name": "CompressPoint",
      "outputs": [
        {
          "name": "Pout",
          "type": "uint256"
        }
      ],
      "payable": false,
      "stateMutability": "pure",
      "type": "function"
    },
    {
      "constant": true,
      "inputs": [
        {
          "name": "p0",
          "type": "uint256[2]"
        },
        {
          "name": "s",
          "type": "uint256"
        }
      ],
      "name": "ecMul",
      "outputs": [
        {
          "name": "p1",
          "type": "uint256[2]"
        }
      ],
      "payable": false,
      "stateMutability": "view",
      "type": "function"
    },
    {
      "constant": true,
      "inputs": [],
      "name": "P",
      "outputs": [
        {
          "name": "",
          "type": "uint256"
        }
      ],
      "payable": false,
      "stateMutability": "view",
      "type": "function"
    },
    {
      "constant": true,
      "inputs": [],
      "name": "owner",
      "outputs": [
        {
          "name": "",
          "type": "address"
        }
      ],
      "payable": false,
      "stateMutability": "view",
      "type": "function"
    },
    {
      "constant": true,
      "inputs": [
        {
          "name": "",
          "type": "uint256"
        }
      ],
      "name": "G1",
      "outputs": [
        {
          "name": "",
          "type": "uint256"
        }
      ],
      "payable": false,
      "stateMutability": "view",
      "type": "function"
    },
    {
      "constant": true,
      "inputs": [
        {
          "name": "p0",
          "type": "uint256[2]"
        },
        {
          "name": "p1",
          "type": "uint256[2]"
        }
      ],
      "name": "ecAdd",
      "outputs": [
        {
          "name": "p2",
          "type": "uint256[2]"
        }
      ],
      "payable": false,
      "stateMutability": "view",
      "type": "function"
    },
    {
      "constant": true,
      "inputs": [
        {
          "name": "",
          "type": "uint256"
        }
      ],
      "name": "H",
      "outputs": [
        {
          "name": "",
          "type": "uint256"
        }
      ],
      "payable": false,
      "stateMutability": "view",
      "type": "function"
    },
    {
      "constant": false,
      "inputs": [],
      "name": "Kill",
      "outputs": [],
      "payable": false,
      "stateMutability": "nonpayable",
      "type": "function"
    },
    {
      "constant": true,
      "inputs": [],
      "name": "N",
      "outputs": [
        {
          "name": "",
          "type": "uint256"
        }
      ],
      "payable": false,
      "stateMutability": "view",
      "type": "function"
    },
    {
      "constant": true,
      "inputs": [
        {
          "name": "",
          "type": "uint256"
        }
      ],
      "name": "KeyImageUsed",
      "outputs": [
        {
          "name": "",
          "type": "bool"
        }
      ],
      "payable": false,
      "stateMutability": "view",
      "type": "function"
    },
    {
      "constant": true,
      "inputs": [
        {
          "name": "message",
          "type": "bytes"
        },
        {
          "name": "data",
          "type": "uint256[]"
        }
      ],
      "name": "RingSign_User",
      "outputs": [
        {
          "name": "signature",
          "type": "uint256[32]"
        }
      ],
      "payable": false,
      "stateMutability": "view",
      "type": "function"
    },
    {
      "constant": true,
      "inputs": [],
      "name": "ECSignMask",
      "outputs": [
        {
          "name": "",
          "type": "uint256"
        }
      ],
      "payable": false,
      "stateMutability": "view",
      "type": "function"
    },
    {
      "constant": false,
      "inputs": [
        {
          "name": "newOwner",
          "type": "address"
        }
      ],
      "name": "transferOwnership",
      "outputs": [],
      "payable": false,
      "stateMutability": "nonpayable",
      "type": "function"
    },
    {
      "inputs": [],
      "payable": false,
      "stateMutability": "nonpayable",
      "type": "constructor"
    },
    {
      "anonymous": false,
      "inputs": [
        {
          "indexed": false,
          "name": "_blockNum",
          "type": "uint256"
        },
        {
          "indexed": false,
          "name": "_blockHash",
          "type": "bytes32"
        },
        {
          "indexed": false,
          "name": "_uuid",
          "type": "string"
        },
        {
          "indexed": false,
          "name": "_userAddr",
          "type": "address"
        },
        {
          "indexed": false,
          "name": "_userSig",
          "type": "bytes"
        },
        {
          "indexed": false,
          "name": "_ringSig",
          "type": "uint256[]"
        }
      ],
      "name": "LogProof",
      "type": "event"
    },
    {
      "anonymous": false,
      "inputs": [
        {
          "indexed": true,
          "name": "previousOwner",
          "type": "address"
        },
        {
          "indexed": true,
          "name": "newOwner",
          "type": "address"
        }
      ],
      "name": "OwnershipTransferred",
      "type": "event"
    },
    {
      "constant": false,
      "inputs": [
        {
          "name": "_node",
          "type": "address"
        },
        {
          "name": "_pubKey",
          "type": "uint256"
        }
      ],
      "name": "addVerifyingNode",
      "outputs": [
        {
          "name": "success",
          "type": "bool"
        }
      ],
      "payable": false,
      "stateMutability": "nonpayable",
      "type": "function"
    },
    {
      "constant": false,
      "inputs": [
        {
          "name": "_node",
          "type": "address"
        }
      ],
      "name": "removeVerifyingNode",
      "outputs": [
        {
          "name": "success",
          "type": "bool"
        }
      ],
      "payable": false,
      "stateMutability": "nonpayable",
      "type": "function"
    },
    {
      "constant": true,
      "inputs": [
        {
          "name": "_node",
          "type": "address"
        }
      ],
      "name": "isVerifyingNode",
      "outputs": [
        {
          "name": "",
          "type": "bool"
        }
      ],
      "payable": false,
      "stateMutability": "view",
      "type": "function"
    },
    {
      "constant": true,
      "inputs": [
        {
          "name": "_message",
          "type": "bytes"
        },
        {
          "name": "_fromVNode",
          "type": "address"
        },
        {
          "name": "_prvKey",
          "type": "uint256"
        },
        {
          "name": "_dummyNodeIDs",
          "type": "uint256[]"
        },
        {
          "name": "_randNums",
          "type": "uint256[]"
        }
      ],
      "name": "ringSign",
      "outputs": [
        {
          "name": "signature",
          "type": "uint256[32]"
        },
        {
          "name": "success",
          "type": "bool"
        }
      ],
      "payable": false,
      "stateMutability": "view",
      "type": "function"
    },
    {
      "constant": true,
      "inputs": [
        {
          "name": "_blockNum",
          "type": "uint256"
        },
        {
          "name": "_blockHash",
          "type": "bytes32"
        },
        {
          "name": "_uuid",
          "type": "string"
        },
        {
          "name": "_userAddr",
          "type": "address"
        },
        {
          "name": "_userSig",
          "type": "bytes"
        },
        {
          "name": "_ringSig",
          "type": "uint256[]"
        }
      ],
      "name": "verifyProof",
      "outputs": [
        {
          "name": "isValid",
          "type": "bool"
        }
      ],
      "payable": false,
      "stateMutability": "view",
      "type": "function"
    },
    {
      "constant": false,
      "inputs": [
        {
          "name": "_blockNum",
          "type": "uint256"
        },
        {
          "name": "_blockHash",
          "type": "bytes32"
        },
        {
          "name": "_uuid",
          "type": "string"
        },
        {
          "name": "_userAddr",
          "type": "address"
        },
        {
          "name": "_userSig",
          "type": "bytes"
        },
        {
          "name": "_ringSig",
          "type": "uint256[]"
        }
      ],
      "name": "logProof",
      "outputs": [
        {
          "name": "success",
          "type": "bool"
        }
      ],
      "payable": false,
      "stateMutability": "nonpayable",
      "type": "function"
    }
  ],
  "bytecode": "0x606060405234156200001057600080fd5b60008054600160a060020a033316600160a060020a031991821681178355600180549092161781559060029001556002806001015562000096600280604080519081016040529190828260026020028201915b81548152602001906001019080831162000063575050505050620000db64010000000002620019f0176401000000009004565b620000a69060049060026200026a565b50600b805460018101620000bb8382620002ad565b5060009182526020909120018054600160a060020a031916905562000320565b620000e5620002d9565b60007f30644e72e131a029b85045b68181585d2833e84879b9709143e1f593f0000001835160208501516040519182526020820152604090810190519081900390208115156200013157fe5b0682525b8015156200016f576200015782516401000000006200119a6200017e82021704565b60208401919091529050818051600101905262000135565b81805160001901905250919050565b600080600080600060008051602062001f51833981519152868709925060008051602062001f51833981519152868409925060008051602062001f5183398151915260038408925060008051602062001f5183398151915291507f0c19139cb84c680a6e14116da060561765e05aa45a1c72a34f082305b61f3f52905060405160208152602080820152602060408201528360608201528160808201528260a082015260208160c083600060056107d05a03f18080156200023f5762000244565b60c083fd5b5081519650505060008051602062001f5183398151915285860983149350505050915091565b82600281019282156200029b579160200282015b828111156200029b5782518255916020019190600101906200027e565b50620002a992915062000300565b5090565b815481835581811511620002d457600083815260209020620002d491810190830162000300565b505050565b604080519081016040526002815b6000815260200190600190039081620002e75790505090565b6200031d91905b80821115620002a9576000815560010162000307565b90565b611c2180620003306000396000f3006060604052600436106101695763ffffffff7c01000000000000000000000000000000000000000000000000000000006000350416630ade90f5811461016e5780630b2d0364146101a15780630dbe671f146101c0578063101a119d146101e5578063105ae03a146102d557806310ddd81e146102f457806312966985146103e45780631aacf7c2146104065780632428766e1461052d578063418ee056146105435780634787f1a71461055c57806351e50bfb1461058e5780635c660547146105a45780635da7f69e1461063557806366230bd91461068357806371b1c161146106b357806371de3724146106ef5780638b8fbd921461072d5780638da5cb5b146107405780639216084d14610753578063a867d0ca14610769578063bb314009146107d1578063be26733c146107e7578063c9e525df146107fc578063e0e5ade71461080f578063e4613fef14610825578063e4bf28c1146108d1578063f2fde38b146108e4575b600080fd5b341561017957600080fd5b61018d600160a060020a0360043516610903565b604051901515815260200160405180910390f35b34156101ac57600080fd5b61018d600160a060020a03600435166109af565b34156101cb57600080fd5b6101d36109cc565b60405190815260200160405180910390f35b34156101f057600080fd5b61018d600480359060248035919060649060443590810190830135806020601f82018190048102016040519081016040528181529291906020840183838082843782019150505050505091908035600160a060020a031690602001909190803590602001908201803590602001908080601f016020809104026020016040519081016040528181529291906020840183838082843782019150505050505091908035906020019082018035906020019080806020026020016040519081016040528093929190818152602001838360200280828437509496506109f095505050505050565b34156102e057600080fd5b6101d3600160a060020a0360043516610b88565b34156102ff57600080fd5b61018d600480359060248035919060649060443590810190830135806020601f82018190048102016040519081016040528181529291906020840183838082843782019150505050505091908035600160a060020a031690602001909190803590602001908201803590602001908080601f01602080910402602001604051908101604052818152929190602084018383808284378201915050505050509190803590602001908201803590602001908080602002602001604051908101604052809392919081815260200183836020028082843750949650610b9a95505050505050565b34156103ef57600080fd5b61018d600160a060020a0360043516602435610d12565b341561041157600080fd5b6104e960046024813581810190830135806020601f820181900481020160405190810160405281815292919060208401838380828437509496600160a060020a0387351696602080820135975091955060608101945060409081013586018083019450359250829182810201905190810160405280939291908181526020018383602002808284378201915050505050509190803590602001908201803590602001908080602002602001604051908101604052809392919081815260200183836020028082843750949650610dc995505050505050565b604051808361040080838360005b8381101561050f5780820151838201526020016104f7565b50505050905001821515151581526020019250505060405180910390f35b341561053857600080fd5b61018d600435611021565b341561054e57600080fd5b6101d3600435602435611036565b341561056757600080fd5b610572600435611064565b604051600160a060020a03909116815260200160405180910390f35b341561059957600080fd5b6101d360043561109f565b34156105af57600080fd5b61018d60046024813581810190830135806020601f82018190048102016040519081016040528181529291906020840183838082843782019150505050505091908035906020019082018035906020019080806020026020016040519081016040528093929190818152602001838360200280828437509496506110b195505050505050565b341561064057600080fd5b61064b6004356110c4565b6040518082604080838360005b83811015610670578082015183820152602001610658565b5050505090500191505060405180910390f35b341561068e57600080fd5b61069960043561119a565b604051918252151560208201526040908101905180910390f35b34156106be57600080fd5b6101d3600460448160026040805190810160405280929190826002602002808284375093955061127f945050505050565b34156106fa57600080fd5b61064b600460448160026040805190810160405280929190826002602002808284375093955050923592506112a0915050565b341561073857600080fd5b6101d36112f7565b341561074b57600080fd5b610572611309565b341561075e57600080fd5b6101d3600435611318565b341561077457600080fd5b61064b6004604481600260408051908101604052809291908260026020028082843782019150505050509190806040019060028060200260405190810160405280929190826002602002808284375093955061132b945050505050565b34156107dc57600080fd5b6101d3600435611371565b34156107f257600080fd5b6107fa61137e565b005b341561080757600080fd5b6101d36113bd565b341561081a57600080fd5b61018d6004356113cf565b341561083057600080fd5b6108b660046024813581810190830135806020601f82018190048102016040519081016040528181529291906020840183838082843782019150505050505091908035906020019082018035906020019080806020026020016040519081016040528093929190818152602001838360200280828437509496506113e495505050505050565b60405180826104008083836000815183820152602001610658565b34156108dc57600080fd5b6101d36113f6565b34156108ef57600080fd5b6107fa600160a060020a03600435166113fe565b6000805433600160a060020a0390811691161461091f57600080fd5b610928826109af565b1515610936575060006109aa565b600160a060020a0382166000908152600c6020526040902054600b8054909190811061095e57fe5b60009182526020808320909101805473ffffffffffffffffffffffffffffffffffffffff19169055600160a060020a0384168252600c81526040808320839055600d9091528120555060015b919050565b600160a060020a03166000908152600c6020526040902054151590565b7f0c19139cb84c680a6e14116da060561765e05aa45a1c72a34f082305b61f3f5281565b600083600160a060020a031673__ECRecovery____________________________6319045a25898989604051838152602081018390526040810182805190602001908083835b60208310610a555780518252601f199092019160209182019101610a36565b6001836020036101000a038019825116818451161790925250505091909101945060409350505050518091039020866000604051602001526040517c010000000000000000000000000000000000000000000000000000000063ffffffff851602815260048101838152604060248301908152909160440183818151815260200191508051906020019080838360005b83811015610afd578082015183820152602001610ae5565b50505050905090810190601f168015610b2a5780820380516001836020036101000a031916815260200191505b50935050505060206040518083038186803b1515610b4757600080fd5b6102c65a03f41515610b5857600080fd5b50505060405180519050600160a060020a0316148015610b7d5750610b7d8383611499565b979650505050505050565b60076020526000908152604090205481565b60007f7a7e2c206372f5ff70b41ed2d0e3bf84f0986c30300f105eb9c56a13b300c4ee87878787878760405186815260208101869052600160a060020a038416606082015260c06040820181815290608083019060a0840190840188818151815260200191508051906020019080838360005b83811015610c25578082015183820152602001610c0d565b50505050905090810190601f168015610c525780820380516001836020036101000a031916815260200191505b50848103835286818151815260200191508051906020019080838360005b83811015610c88578082015183820152602001610c70565b50505050905090810190601f168015610cb55780820380516001836020036101000a031916815260200191505b50848103825285818151815260200191508051906020019060200280838360005b83811015610cee578082015183820152602001610cd6565b50505050905001995050505050505050505060405180910390a19695505050505050565b6000805433600160a060020a03908116911614610d2e57600080fd5b600160a060020a0383161515610d4657506000610dc3565b600b805460018101610d588382611b18565b506000918252602090912001805473ffffffffffffffffffffffffffffffffffffffff1916600160a060020a038516179055600b54610d9890600161159d565b600160a060020a0384166000908152600c6020908152604080832093909355600d9052208290555060015b92915050565b610dd1611b41565b6000610ddb611b41565b6000610de5611b69565b6000610df08a6109af565b1580610dfe57508651885114155b80610e2d57506020610e2a6001610e1e60028c519063ffffffff6115af16565b9063ffffffff6115e516565b10155b15610e3e5783600095509550611013565b875192506020604051805910610e515750595b9080825280602002602001820160405250915060009050600082600081518110610e7757fe5b602090810290910101528882600181518110610e8f57fe5b6020908102909101810191909152600160a060020a038b166000908152600d909152604090205482610ec885600263ffffffff6115e516565b81518110610ed257fe5b602090810290910101525060005b8281101561100257610f27600b898381518110610ef957fe5b9060200190602002015181548110610f0d57fe5b600091825260209091200154600160a060020a03166109af565b1515610f395783600095509550611013565b868181518110610f4557fe5b9060200190602002015182610f6183600263ffffffff6115e516565b81518110610f6b57fe5b60209081029091010152600d6000600b8a8481518110610f8757fe5b9060200190602002015181548110610f9b57fe5b6000918252602080832090910154600160a060020a0316835282019290925260400190205482610fd685610e1e85600363ffffffff6115e516565b81518110610fe057fe5b60209081029091010152610ffb81600163ffffffff6115e516565b9050610ee0565b61100c8b836115f4565b6001955095505b505050509550959350505050565b60096020526000908152604090205460ff1681565b60086020528160005260406000208181548110151561105157fe5b6000918252602090912001549150829050565b600061106e611b7b565b611077836110c4565b9050805160208201516040519182526020820152604090810190519081900390209392505050565b600a6020526000908152604090205481565b60006110bd8383611499565b9392505050565b6110cc611b7b565b7f7fffffffffffffffffffffffffffffffffffffffffffffffffffffffffffffff8216815260008061110483825b602002015161119a565b925090508115156111225760008084528360015b6020020152611193565b60ff60020a8416156111655780600116600114156111465760208301819052611160565b600080516020611bb6833981519152819003836001611118565b611193565b806001166001141561118b57600080516020611bb6833981519152819003836001611118565b602083018190525b5050919050565b6000806000806000600080516020611bb68339815191528687099250600080516020611bb68339815191528684099250600080516020611bb6833981519152600384089250600080516020611bb683398151915291507f0c19139cb84c680a6e14116da060561765e05aa45a1c72a34f082305b61f3f52905060405160208152602080820152602060408201528360608201528160808201528260a082015260208160c083600060056107d05a03f18080156112555761125a565b60c083fd5b50815196505050600080516020611bb683398151915285860983149350505050915091565b6000815190506020820151600116600114156109aa5760ff60020a17919050565b6112a8611b7b565b6040518351815260208401516020820152826040820152604081606083600060076107d05a03f18080156112db576112e0565b608083fd5b508151835260208201516020840152505092915050565b600080516020611bb683398151915281565b600154600160a060020a031681565b60028181811061132457fe5b0154905081565b611333611b7b565b60405183518152602084015160208201528251604082015260208301516060820152604081608083600060066107d05a03f18080156112db576112e0565b6004816002811061132457fe5b60015433600160a060020a039081169116148015906113a75750600154600160a060020a031615155b156113b157600080fd5b33600160a060020a0316ff5b600080516020611bd683398151915281565b60066020526000908152604090205460ff1681565b6113ec611b41565b6110bd83836115f4565b60ff60020a81565b60005433600160a060020a0390811691161461141957600080fd5b600160a060020a038116151561142e57600080fd5b600054600160a060020a0380831691167f8be0079c531659141344cd1fd0a4f28419497f9722a3daafe3b4186f6b6457e060405160405180910390a36000805473ffffffffffffffffffffffffffffffffffffffff1916600160a060020a0392909216919091179055565b60006114a3611b7b565b6114ab611b7b565b60008060006006875110156114bf57600080fd5b600287518115156114cc57fe5b06156114d757600080fd5b866001815181106114e457fe5b90602001906020020151925061150f8760008151811061150057fe5b906020019060200201516110c4565b93506000915060028088510381151561152457fe5b0490505b8082101561157857611544878383600201018151811061150057fe5b945061156b888489856002018151811061155a57fe5b906020019060200201518888611861565b9250816001019150611528565b8660018151811061158557fe5b90602001906020020151909214979650505050505050565b6000828211156115a957fe5b50900390565b6000808315156115c257600091506115de565b508282028284828115156115d257fe5b04146115da57fe5b8091505b5092915050565b6000828201838110156115da57fe5b6115fc611b41565b600080611607611b7b565b61160f611b7b565b600060068751101561162057600080fd5b60208751111561162f57600080fd5b6002875181151561163c57fe5b061561164757600080fd5b60028088510381151561165657fe5b049450600293505b86518410156116995786848151811061167357fe5b9060200190602002015186856020811061168957fe5b602002015260019093019261165e565b84876000815181106116a757fe5b906020019060200201516001018115156116bd57fe5b0693506116ea87886000815181106116d157fe5b9060200190602002015187600201018151811061150057fe5b925061170c876001815181106116fc57fe5b9060200190602002015184611925565b91506117178261127f565b865261175288888060008151811061172b57fe5b906020019060200201516002018151811061174257fe5b9060200190602002015185611942565b905083151561176357602086018190525b8660008151811061177057fe5b9060200190602002015184146117dc57611794878587600201018151811061150057fe5b92506117bb88828987600201815181106117aa57fe5b906020019060200201518686611861565b9050836001019350848414156117d75760208601819052600093505b611763565b61182b87886000815181106117ed57fe5b906020019060200201516002018151811061180457fe5b90602001906020020151828960018151811061181c57fe5b906020019060200201516119bd565b868860008151811061183957fe5b906020019060200201516002016020811061185057fe5b602002015250939695505050505050565b600061186b611b7b565b611873611b7b565b61187b611b7b565b8551602087015160208401528252611892826119f0565b905061189e82896112a0565b91506118db600280604080519081016040529190828260026020028201915b8154815260200190600101908083116118bd575050505050886112a0565b92506118e7828461132b565b91506118f381886112a0565b90506118ff85896112a0565b925061190b818461132b565b9050611918898383611a6d565b9998505050505050505050565b61192d611b7b565b611936826119f0565b90506110bd81846112a0565b600061194c611b7b565b611954611b7b565b61195d846119f0565b905061196981866112a0565b90506119a6600280604080519081016040529190828260026020028201915b815481526020019060010190808311611988575050505050866112a0565b91506119b3868383611a6d565b9695505050505050565b6000600080516020611bd6833981519152828409600080516020611bd68339815191529081039150818508949350505050565b6119f8611b7b565b6000600080516020611bd683398151915283516020850151604051918252602082015260409081019051908190039020811515611a3157fe5b0682525b801515611a5e57611a478260006110fa565b602084019190915290508180516001019052611a35565b81805160001901905250919050565b6000600080516020611bd68339815191528484516020860151855160208701516040518086805190602001908083835b60208310611abc5780518252601f199092019160209182019101611a9d565b6001836020036101000a03801982511681845116808217855250505050505090500185815260200184815260200183815260200182815260200195505050505050604051908190039020811515611b0f57fe5b06949350505050565b815481835581811511611b3c57600083815260209020611b3c918101908301611b94565b505050565b6104006040519081016040526020815b6000815260200190600190039081611b515790505090565b60206040519081016040526000815290565b6040805190810160405260008152600160208201611b51565b611bb291905b80821115611bae5760008155600101611b9a565b5090565b90560030644e72e131a029b85045b68181585d97816a916871ca8d3c208c16d87cfd4730644e72e131a029b85045b68181585d2833e84879b9709143e1f593f0000001a165627a7a723058207199c095577fae3bf7bff2ac42043cd42fe68fcffd839198fb80844e615893e0002930644e72e131a029b85045b68181585d97816a916871ca8d3c208c16d87cfd47",
  "source": "pragma solidity ^0.4.18;\r\n\r\nimport 'zeppelin-solidity/contracts/ECRecovery.sol';\r\nimport 'zeppelin-solidity/contracts/ownership/Ownable.sol';\r\nimport 'zeppelin-solidity/contracts/math/SafeMath.sol';\r\nimport './RingSig.sol';\r\n\r\ncontract PPoL is Ownable, RingMixerV2 {\r\n  using SafeMath for uint256;\r\n\r\n  address[] verifyingNodes;\r\n  mapping(address => uint256) verifyingNodeID;\r\n  mapping(address => uint256) nodePublicKey;\r\n\r\n  event LogProof(uint256 _blockNum, bytes32 _blockHash, string _uuid, address _userAddr, bytes _userSig,\r\n    uint256[] _ringSig);\r\n\r\n  function PPoL() public {\r\n    verifyingNodes.push(address(0));\r\n  }\r\n\r\n  function addVerifyingNode(address _node, uint256 _pubKey) public onlyOwner returns(bool success) {\r\n    if (_node == address(0)) { return false; }\r\n    verifyingNodes.push(_node);\r\n    verifyingNodeID[_node] = verifyingNodes.length.sub(1);\r\n    nodePublicKey[_node] = _pubKey;\r\n    return true;\r\n  }\r\n\r\n  function removeVerifyingNode(address _node) public onlyOwner returns(bool success) {\r\n    if (!isVerifyingNode(_node)) { return false; }\r\n    delete verifyingNodes[verifyingNodeID[_node]];\r\n    delete verifyingNodeID[_node];\r\n    delete nodePublicKey[_node];\r\n    return true;\r\n  }\r\n\r\n  function isVerifyingNode(address _node) public view returns(bool) {\r\n    return verifyingNodeID[_node] != 0;\r\n  }\r\n\r\n  function ringSign(bytes _message, address _fromVNode, uint256 _prvKey, uint256[] _dummyNodeIDs, uint256[] _randNums)\r\n    public view returns(uint256[32] signature, bool success)\r\n  {\r\n    uint256[32] memory empty;\r\n    if (!isVerifyingNode(_fromVNode)\r\n        || _dummyNodeIDs.length != _randNums.length\r\n        || _dummyNodeIDs.length.mul(2).add(1) >= 32)\r\n    {\r\n      return (empty, false);\r\n    }\r\n\r\n    uint256 N = _dummyNodeIDs.length;\r\n    uint256[] memory data = new uint256[](32);\r\n    uint256 i = 0;\r\n\r\n    data[0] = 0;\r\n    data[1] = _prvKey;\r\n    data[N.add(2)] = nodePublicKey[_fromVNode];\r\n    for (i = 0; i < N; i = i.add(1)) {\r\n      if (!isVerifyingNode(verifyingNodes[_dummyNodeIDs[i]])) { return (empty, false); }\r\n      data[i.add(2)] = _randNums[i];\r\n      data[i.add(3).add(N)] = nodePublicKey[verifyingNodes[_dummyNodeIDs[i]]];\r\n    }\r\n    return (RingSign(_message, data), true);\r\n  }\r\n\r\n  function verifyProof(uint256 _blockNum, bytes32 _blockHash, string _uuid, address _userAddr, bytes _userSig,\r\n    uint256[] _ringSig)\r\n    public view returns(bool isValid)\r\n  {\r\n    return ECRecovery.recover(keccak256(_blockNum, _blockHash, _uuid), _userSig) == _userAddr\r\n      && RingVerify(_userSig, _ringSig);\r\n  }\r\n\r\n  function logProof(uint256 _blockNum, bytes32 _blockHash, string _uuid, address _userAddr, bytes _userSig,\r\n    uint256[] _ringSig)\r\n    public returns(bool success)\r\n  {\r\n    LogProof(_blockNum, _blockHash, _uuid, _userAddr, _userSig, _ringSig);\r\n  }\r\n}\r\n",
  "sourcePath": "D:\\msi-cn\\Documents\\GitHub\\ethdenver\\contracts\\PPoL.sol",
  "compiler": {
    "name": "solc",
    "version": "0.4.19+commit.c4cbbb05.Emscripten.clang"
  },
  "schemaVersion": "1.0.1",
  "updatedAt": "2018-02-18T06:52:39.175Z"
}