{
  "contractName": "PPoL",
  "abi": [
    {
      "constant": true,
      "inputs": [],
      "name": "a",
      "outputs": [
        {
          "name": "",
          "type": "uint256"
        }
      ],
      "payable": false,
      "stateMutability": "view",
      "type": "function"
    },
    {
      "constant": true,
      "inputs": [
        {
          "name": "",
          "type": "address"
        }
      ],
      "name": "token_balance",
      "outputs": [
        {
          "name": "",
          "type": "uint256"
        }
      ],
      "payable": false,
      "stateMutability": "view",
      "type": "function"
    },
    {
      "constant": true,
      "inputs": [
        {
          "name": "",
          "type": "uint256"
        }
      ],
      "name": "lookup_pubkey_by_balance_populated",
      "outputs": [
        {
          "name": "",
          "type": "bool"
        }
      ],
      "payable": false,
      "stateMutability": "view",
      "type": "function"
    },
    {
      "constant": true,
      "inputs": [
        {
          "name": "",
          "type": "uint256"
        },
        {
          "name": "",
          "type": "uint256"
        }
      ],
      "name": "lookup_pubkey_by_balance",
      "outputs": [
        {
          "name": "",
          "type": "uint256"
        }
      ],
      "payable": false,
      "stateMutability": "view",
      "type": "function"
    },
    {
      "constant": true,
      "inputs": [
        {
          "name": "PubKey",
          "type": "uint256"
        }
      ],
      "name": "GetAddress",
      "outputs": [
        {
          "name": "addr",
          "type": "address"
        }
      ],
      "payable": false,
      "stateMutability": "view",
      "type": "function"
    },
    {
      "constant": true,
      "inputs": [
        {
          "name": "",
          "type": "uint256"
        }
      ],
      "name": "lookup_pubkey_by_balance_count",
      "outputs": [
        {
          "name": "",
          "type": "uint256"
        }
      ],
      "payable": false,
      "stateMutability": "view",
      "type": "function"
    },
    {
      "constant": true,
      "inputs": [
        {
          "name": "message",
          "type": "bytes"
        },
        {
          "name": "signature",
          "type": "uint256[]"
        }
      ],
      "name": "RingVerify_User",
      "outputs": [
        {
          "name": "success",
          "type": "bool"
        }
      ],
      "payable": false,
      "stateMutability": "view",
      "type": "function"
    },
    {
      "constant": true,
      "inputs": [
        {
          "name": "Pin",
          "type": "uint256"
        }
      ],
      "name": "ExpandPoint",
      "outputs": [
        {
          "name": "Pout",
          "type": "uint256[2]"
        }
      ],
      "payable": false,
      "stateMutability": "view",
      "type": "function"
    },
    {
      "constant": true,
      "inputs": [
        {
          "name": "x",
          "type": "uint256"
        }
      ],
      "name": "EvaluateCurve",
      "outputs": [
        {
          "name": "y",
          "type": "uint256"
        },
        {
          "name": "onCurve",
          "type": "bool"
        }
      ],
      "payable": false,
      "stateMutability": "view",
      "type": "function"
    },
    {
      "constant": true,
      "inputs": [
        {
          "name": "Pin",
          "type": "uint256[2]"
        }
      ],
      "name": "CompressPoint",
      "outputs": [
        {
          "name": "Pout",
          "type": "uint256"
        }
      ],
      "payable": false,
      "stateMutability": "pure",
      "type": "function"
    },
    {
      "constant": true,
      "inputs": [
        {
          "name": "p0",
          "type": "uint256[2]"
        },
        {
          "name": "s",
          "type": "uint256"
        }
      ],
      "name": "ecMul",
      "outputs": [
        {
          "name": "p1",
          "type": "uint256[2]"
        }
      ],
      "payable": false,
      "stateMutability": "view",
      "type": "function"
    },
    {
      "constant": true,
      "inputs": [],
      "name": "P",
      "outputs": [
        {
          "name": "",
          "type": "uint256"
        }
      ],
      "payable": false,
      "stateMutability": "view",
      "type": "function"
    },
    {
      "constant": true,
      "inputs": [],
      "name": "owner",
      "outputs": [
        {
          "name": "",
          "type": "address"
        }
      ],
      "payable": false,
      "stateMutability": "view",
      "type": "function"
    },
    {
      "constant": true,
      "inputs": [
        {
          "name": "",
          "type": "uint256"
        }
      ],
      "name": "G1",
      "outputs": [
        {
          "name": "",
          "type": "uint256"
        }
      ],
      "payable": false,
      "stateMutability": "view",
      "type": "function"
    },
    {
      "constant": true,
      "inputs": [
        {
          "name": "p0",
          "type": "uint256[2]"
        },
        {
          "name": "p1",
          "type": "uint256[2]"
        }
      ],
      "name": "ecAdd",
      "outputs": [
        {
          "name": "p2",
          "type": "uint256[2]"
        }
      ],
      "payable": false,
      "stateMutability": "view",
      "type": "function"
    },
    {
      "constant": true,
      "inputs": [
        {
          "name": "",
          "type": "uint256"
        }
      ],
      "name": "H",
      "outputs": [
        {
          "name": "",
          "type": "uint256"
        }
      ],
      "payable": false,
      "stateMutability": "view",
      "type": "function"
    },
    {
      "constant": false,
      "inputs": [],
      "name": "Kill",
      "outputs": [],
      "payable": false,
      "stateMutability": "nonpayable",
      "type": "function"
    },
    {
      "constant": true,
      "inputs": [],
      "name": "N",
      "outputs": [
        {
          "name": "",
          "type": "uint256"
        }
      ],
      "payable": false,
      "stateMutability": "view",
      "type": "function"
    },
    {
      "constant": true,
      "inputs": [
        {
          "name": "",
          "type": "uint256"
        }
      ],
      "name": "KeyImageUsed",
      "outputs": [
        {
          "name": "",
          "type": "bool"
        }
      ],
      "payable": false,
      "stateMutability": "view",
      "type": "function"
    },
    {
      "constant": true,
      "inputs": [
        {
          "name": "message",
          "type": "bytes"
        },
        {
          "name": "data",
          "type": "uint256[]"
        }
      ],
      "name": "RingSign_User",
      "outputs": [
        {
          "name": "signature",
          "type": "uint256[32]"
        }
      ],
      "payable": false,
      "stateMutability": "view",
      "type": "function"
    },
    {
      "constant": true,
      "inputs": [],
      "name": "ECSignMask",
      "outputs": [
        {
          "name": "",
          "type": "uint256"
        }
      ],
      "payable": false,
      "stateMutability": "view",
      "type": "function"
    },
    {
      "constant": false,
      "inputs": [
        {
          "name": "newOwner",
          "type": "address"
        }
      ],
      "name": "transferOwnership",
      "outputs": [],
      "payable": false,
      "stateMutability": "nonpayable",
      "type": "function"
    },
    {
      "inputs": [],
      "payable": false,
      "stateMutability": "nonpayable",
      "type": "constructor"
    },
    {
      "anonymous": false,
      "inputs": [
        {
          "indexed": true,
          "name": "previousOwner",
          "type": "address"
        },
        {
          "indexed": true,
          "name": "newOwner",
          "type": "address"
        }
      ],
      "name": "OwnershipTransferred",
      "type": "event"
    },
    {
      "constant": false,
      "inputs": [
        {
          "name": "_node",
          "type": "address"
        },
        {
          "name": "_pubKey",
          "type": "uint256"
        }
      ],
      "name": "addVerifyingNode",
      "outputs": [
        {
          "name": "success",
          "type": "bool"
        }
      ],
      "payable": false,
      "stateMutability": "nonpayable",
      "type": "function"
    },
    {
      "constant": false,
      "inputs": [
        {
          "name": "_node",
          "type": "address"
        }
      ],
      "name": "removeVerifyingNode",
      "outputs": [
        {
          "name": "success",
          "type": "bool"
        }
      ],
      "payable": false,
      "stateMutability": "nonpayable",
      "type": "function"
    },
    {
      "constant": true,
      "inputs": [
        {
          "name": "_node",
          "type": "address"
        }
      ],
      "name": "isVerifyingNode",
      "outputs": [
        {
          "name": "",
          "type": "bool"
        }
      ],
      "payable": false,
      "stateMutability": "view",
      "type": "function"
    },
    {
      "constant": true,
      "inputs": [
        {
          "name": "_message",
          "type": "bytes"
        },
        {
          "name": "_fromVNode",
          "type": "address"
        },
        {
          "name": "_prvKey",
          "type": "uint256"
        },
        {
          "name": "_dummyNodeIDs",
          "type": "uint256[]"
        },
        {
          "name": "_randNums",
          "type": "uint256[]"
        }
      ],
      "name": "ringSign",
      "outputs": [
        {
          "name": "signature",
          "type": "uint256[32]"
        },
        {
          "name": "success",
          "type": "bool"
        }
      ],
      "payable": false,
      "stateMutability": "view",
      "type": "function"
    },
    {
      "constant": true,
      "inputs": [
        {
          "name": "_timestamp",
          "type": "uint256"
        },
        {
          "name": "_userAddr",
          "type": "address"
        },
        {
          "name": "_userSig",
          "type": "bytes"
        },
        {
          "name": "_ringSig",
          "type": "uint256[]"
        }
      ],
      "name": "verifyProof",
      "outputs": [
        {
          "name": "isValid",
          "type": "bool"
        }
      ],
      "payable": false,
      "stateMutability": "view",
      "type": "function"
    }
  ],
  "bytecode": "0x606060405234156200001057600080fd5b60008054600160a060020a033316600160a060020a031991821681178355600180549092161781559060029001556002806001015562000096600280604080519081016040529190828260026020028201915b81548152602001906001019080831162000063575050505050620000db64010000000002620016d5176401000000009004565b620000a69060049060026200026a565b50600b805460018101620000bb8382620002ad565b5060009182526020909120018054600160a060020a031916905562000320565b620000e5620002d9565b60007f30644e72e131a029b85045b68181585d2833e84879b9709143e1f593f0000001835160208501516040519182526020820152604090810190519081900390208115156200013157fe5b0682525b8015156200016f5762000157825164010000000062000d446200017e82021704565b60208401919091529050818051600101905262000135565b81805160001901905250919050565b600080600080600060008051602062001c36833981519152868709925060008051602062001c36833981519152868409925060008051602062001c3683398151915260038408925060008051602062001c3683398151915291507f0c19139cb84c680a6e14116da060561765e05aa45a1c72a34f082305b61f3f52905060405160208152602080820152602060408201528360608201528160808201528260a082015260208160c083600060056107d05a03f18080156200023f5762000244565b60c083fd5b5081519650505060008051602062001c3683398151915285860983149350505050915091565b82600281019282156200029b579160200282015b828111156200029b5782518255916020019190600101906200027e565b50620002a992915062000300565b5090565b815481835581811511620002d457600083815260209020620002d491810190830162000300565b505050565b604080519081016040526002815b6000815260200190600190039081620002e75790505090565b6200031d91905b80821115620002a9576000815560010162000307565b90565b61190680620003306000396000f30060606040526004361061015e5763ffffffff7c01000000000000000000000000000000000000000000000000000000006000350416630ade90f581146101635780630b2d0364146101965780630dbe671f146101b5578063105ae03a146101da57806312966985146101f95780631aacf7c21461021b5780632428766e14610342578063418ee056146103585780634787f1a71461037157806351e50bfb146103a35780635c660547146103b95780635da7f69e1461044a57806366230bd91461049857806371b1c161146104c857806371de3724146105045780638b8fbd92146105425780638da5cb5b146105555780639216084d14610568578063a6793da81461057e578063a867d0ca14610623578063bb3140091461068b578063be26733c146106a1578063c9e525df146106b6578063e0e5ade7146106c9578063e4613fef146106df578063e4bf28c11461078b578063f2fde38b1461079e575b600080fd5b341561016e57600080fd5b610182600160a060020a03600435166107bd565b604051901515815260200160405180910390f35b34156101a157600080fd5b610182600160a060020a0360043516610869565b34156101c057600080fd5b6101c8610886565b60405190815260200160405180910390f35b34156101e557600080fd5b6101c8600160a060020a03600435166108aa565b341561020457600080fd5b610182600160a060020a03600435166024356108bc565b341561022657600080fd5b6102fe60046024813581810190830135806020601f820181900481020160405190810160405281815292919060208401838380828437509496600160a060020a038735169660208082013597509195506060810194506040908101358601808301945035925082918281020190519081016040528093929190818152602001838360200280828437820191505050505050919080359060200190820180359060200190808060200260200160405190810160405280939291908181526020018383602002808284375094965061097395505050505050565b604051808361040080838360005b8381101561032457808201518382015260200161030c565b50505050905001821515151581526020019250505060405180910390f35b341561034d57600080fd5b610182600435610bcb565b341561036357600080fd5b6101c8600435602435610be0565b341561037c57600080fd5b610387600435610c0e565b604051600160a060020a03909116815260200160405180910390f35b34156103ae57600080fd5b6101c8600435610c49565b34156103c457600080fd5b61018260046024813581810190830135806020601f8201819004810201604051908101604052818152929190602084018383808284378201915050505050509190803590602001908201803590602001908080602002602001604051908101604052809392919081815260200183836020028082843750949650610c5b95505050505050565b341561045557600080fd5b610460600435610c6e565b6040518082604080838360005b8381101561048557808201518382015260200161046d565b5050505090500191505060405180910390f35b34156104a357600080fd5b6104ae600435610d44565b604051918252151560208201526040908101905180910390f35b34156104d357600080fd5b6101c86004604481600260408051908101604052809291908260026020028082843750939550610e29945050505050565b341561050f57600080fd5b61046060046044816002604080519081016040528092919082600260200280828437509395505092359250610e4a915050565b341561054d57600080fd5b6101c8610ea1565b341561056057600080fd5b610387610eb3565b341561057357600080fd5b6101c8600435610ec2565b341561058957600080fd5b610182600480359060248035600160a060020a0316919060649060443590810190830135806020601f8201819004810201604051908101604052818152929190602084018383808284378201915050505050509190803590602001908201803590602001908080602002602001604051908101604052809392919081815260200183836020028082843750949650610ed595505050505050565b341561062e57600080fd5b61046060046044816002604080519081016040528092919082600260200280828437820191505050505091908060400190600280602002604051908101604052809291908260026020028082843750939550611010945050505050565b341561069657600080fd5b6101c8600435611056565b34156106ac57600080fd5b6106b4611063565b005b34156106c157600080fd5b6101c86110a2565b34156106d457600080fd5b6101826004356110b4565b34156106ea57600080fd5b61077060046024813581810190830135806020601f82018190048102016040519081016040528181529291906020840183838082843782019150505050505091908035906020019082018035906020019080806020026020016040519081016040528093929190818152602001838360200280828437509496506110c995505050505050565b6040518082610400808383600081518382015260200161046d565b341561079657600080fd5b6101c86110db565b34156107a957600080fd5b6106b4600160a060020a03600435166110e3565b6000805433600160a060020a039081169116146107d957600080fd5b6107e282610869565b15156107f057506000610864565b600160a060020a0382166000908152600c6020526040902054600b8054909190811061081857fe5b60009182526020808320909101805473ffffffffffffffffffffffffffffffffffffffff19169055600160a060020a0384168252600c81526040808320839055600d9091528120555060015b919050565b600160a060020a03166000908152600c6020526040902054151590565b7f0c19139cb84c680a6e14116da060561765e05aa45a1c72a34f082305b61f3f5281565b60076020526000908152604090205481565b6000805433600160a060020a039081169116146108d857600080fd5b600160a060020a03831615156108f05750600061096d565b600b80546001810161090283826117fd565b506000918252602090912001805473ffffffffffffffffffffffffffffffffffffffff1916600160a060020a038516179055600b5461094290600161117e565b600160a060020a0384166000908152600c6020908152604080832093909355600d9052208290555060015b92915050565b61097b611826565b6000610985611826565b600061098f61184e565b600061099a8a610869565b15806109a857508651885114155b806109d7575060206109d460016109c860028c519063ffffffff61119016565b9063ffffffff6111c616565b10155b156109e85783600095509550610bbd565b8751925060206040518059106109fb5750595b9080825280602002602001820160405250915060009050600082600081518110610a2157fe5b602090810290910101528882600181518110610a3957fe5b6020908102909101810191909152600160a060020a038b166000908152600d909152604090205482610a7285600263ffffffff6111c616565b81518110610a7c57fe5b602090810290910101525060005b82811015610bac57610ad1600b898381518110610aa357fe5b9060200190602002015181548110610ab757fe5b600091825260209091200154600160a060020a0316610869565b1515610ae35783600095509550610bbd565b868181518110610aef57fe5b9060200190602002015182610b0b83600263ffffffff6111c616565b81518110610b1557fe5b60209081029091010152600d6000600b8a8481518110610b3157fe5b9060200190602002015181548110610b4557fe5b6000918252602080832090910154600160a060020a0316835282019290925260400190205482610b80856109c885600363ffffffff6111c616565b81518110610b8a57fe5b60209081029091010152610ba581600163ffffffff6111c616565b9050610a8a565b610bb68b836111d5565b6001955095505b505050509550959350505050565b60096020526000908152604090205460ff1681565b600860205281600052604060002081815481101515610bfb57fe5b6000918252602090912001549150829050565b6000610c18611860565b610c2183610c6e565b9050805160208201516040519182526020820152604090810190519081900390209392505050565b600a6020526000908152604090205481565b6000610c678383611451565b9392505050565b610c76611860565b7f7fffffffffffffffffffffffffffffffffffffffffffffffffffffffffffffff82168152600080610cae83825b6020020151610d44565b92509050811515610ccc5760008084528360015b6020020152610d3d565b60ff60020a841615610d0f578060011660011415610cf05760208301819052610d0a565b60008051602061189b833981519152819003836001610cc2565b610d3d565b8060011660011415610d355760008051602061189b833981519152819003836001610cc2565b602083018190525b5050919050565b600080600080600060008051602061189b833981519152868709925060008051602061189b833981519152868409925060008051602061189b83398151915260038408925060008051602061189b83398151915291507f0c19139cb84c680a6e14116da060561765e05aa45a1c72a34f082305b61f3f52905060405160208152602080820152602060408201528360608201528160808201528260a082015260208160c083600060056107d05a03f1808015610dff57610e04565b60c083fd5b5081519650505060008051602061189b83398151915285860983149350505050915091565b6000815190506020820151600116600114156108645760ff60020a17919050565b610e52611860565b6040518351815260208401516020820152826040820152604081606083600060076107d05a03f1808015610e8557610e8a565b608083fd5b508151835260208201516020840152505092915050565b60008051602061189b83398151915281565b600154600160a060020a031681565b600281818110610ece57fe5b0154905081565b600083600160a060020a031673__ECRecovery____________________________6319045a25876040519081526020016040518091039020866000604051602001526040517c010000000000000000000000000000000000000000000000000000000063ffffffff851602815260048101838152604060248301908152909160440183818151815260200191508051906020019080838360005b83811015610f87578082015183820152602001610f6f565b50505050905090810190601f168015610fb45780820380516001836020036101000a031916815260200191505b50935050505060206040518083038186803b1515610fd157600080fd5b6102c65a03f41515610fe257600080fd5b50505060405180519050600160a060020a031614801561100757506110078383611451565b95945050505050565b611018611860565b60405183518152602084015160208201528251604082015260208301516060820152604081608083600060066107d05a03f1808015610e8557610e8a565b60048160028110610ece57fe5b60015433600160a060020a0390811691161480159061108c5750600154600160a060020a031615155b1561109657600080fd5b33600160a060020a0316ff5b6000805160206118bb83398151915281565b60066020526000908152604090205460ff1681565b6110d1611826565b610c6783836111d5565b60ff60020a81565b60005433600160a060020a039081169116146110fe57600080fd5b600160a060020a038116151561111357600080fd5b600054600160a060020a0380831691167f8be0079c531659141344cd1fd0a4f28419497f9722a3daafe3b4186f6b6457e060405160405180910390a36000805473ffffffffffffffffffffffffffffffffffffffff1916600160a060020a0392909216919091179055565b60008282111561118a57fe5b50900390565b6000808315156111a357600091506111bf565b508282028284828115156111b357fe5b04146111bb57fe5b8091505b5092915050565b6000828201838110156111bb57fe5b6111dd611826565b6000806111e8611860565b6111f0611860565b600060068751101561120157600080fd5b60208751111561121057600080fd5b6002875181151561121d57fe5b061561122857600080fd5b60028088510381151561123757fe5b049450600293505b865184101561127a5786848151811061125457fe5b9060200190602002015186856020811061126a57fe5b602002015260019093019261123f565b848760008151811061128857fe5b9060200190602002015160010181151561129e57fe5b0693506112da87886000815181106112b257fe5b906020019060200201518760020101815181106112cb57fe5b90602001906020020151610c6e565b92506112fc876001815181106112ec57fe5b9060200190602002015184611546565b915061130782610e29565b865261134288888060008151811061131b57fe5b906020019060200201516002018151811061133257fe5b9060200190602002015185611563565b905083151561135357602086018190525b8660008151811061136057fe5b9060200190602002015184146113cc5761138487858760020101815181106112cb57fe5b92506113ab888289876002018151811061139a57fe5b9060200190602002015186866115de565b9050836001019350848414156113c75760208601819052600093505b611353565b61141b87886000815181106113dd57fe5b90602001906020020151600201815181106113f457fe5b90602001906020020151828960018151811061140c57fe5b906020019060200201516116a2565b868860008151811061142957fe5b906020019060200201516002016020811061144057fe5b602002015250939695505050505050565b600061145b611860565b611463611860565b600080600060068751101561147757600080fd5b6002875181151561148457fe5b061561148f57600080fd5b8660018151811061149c57fe5b9060200190602002015192506114b8876000815181106112cb57fe5b9350600091506002808851038115156114cd57fe5b0490505b80821015611521576114ed87838360020101815181106112cb57fe5b9450611514888489856002018151811061150357fe5b9060200190602002015188886115de565b92508160010191506114d1565b8660018151811061152e57fe5b90602001906020020151909214979650505050505050565b61154e611860565b611557826116d5565b9050610c678184610e4a565b600061156d611860565b611575611860565b61157e846116d5565b905061158a8186610e4a565b90506115c7600280604080519081016040529190828260026020028201915b8154815260200190600101908083116115a957505050505086610e4a565b91506115d4868383611752565b9695505050505050565b60006115e8611860565b6115f0611860565b6115f8611860565b855160208701516020840152825261160f826116d5565b905061161b8289610e4a565b9150611658600280604080519081016040529190828260026020028201915b81548152602001906001019080831161163a57505050505088610e4a565b92506116648284611010565b91506116708188610e4a565b905061167c8589610e4a565b92506116888184611010565b9050611695898383611752565b9998505050505050505050565b60006000805160206118bb8339815191528284096000805160206118bb8339815191529081039150818508949350505050565b6116dd611860565b60006000805160206118bb8339815191528351602085015160405191825260208201526040908101905190819003902081151561171657fe5b0682525b8015156117435761172c826000610ca4565b60208401919091529050818051600101905261171a565b81805160001901905250919050565b60006000805160206118bb8339815191528484516020860151855160208701516040518086805190602001908083835b602083106117a15780518252601f199092019160209182019101611782565b6001836020036101000a038019825116818451168082178552505050505050905001858152602001848152602001838152602001828152602001955050505050506040519081900390208115156117f457fe5b06949350505050565b81548183558181151161182157600083815260209020611821918101908301611879565b505050565b6104006040519081016040526020815b60008152602001906001900390816118365790505090565b60206040519081016040526000815290565b6040805190810160405260008152600160208201611836565b61189791905b80821115611893576000815560010161187f565b5090565b90560030644e72e131a029b85045b68181585d97816a916871ca8d3c208c16d87cfd4730644e72e131a029b85045b68181585d2833e84879b9709143e1f593f0000001a165627a7a7230582046420de16b1943dd2f215f34ff9a1474a4966d5cda5f7f99b45bf53ee72c79b6002930644e72e131a029b85045b68181585d97816a916871ca8d3c208c16d87cfd47",
  "source": "pragma solidity ^0.4.18;\r\n\r\nimport 'zeppelin-solidity/contracts/ECRecovery.sol';\r\nimport 'zeppelin-solidity/contracts/ownership/Ownable.sol';\r\nimport 'zeppelin-solidity/contracts/math/SafeMath.sol';\r\nimport './RingSig.sol';\r\n\r\ncontract PPoL is Ownable, RingMixerV2 {\r\n  using SafeMath for uint256;\r\n\r\n  modifier onlyNode { require(isVerifyingNode(msg.sender)); _; }\r\n\r\n  address[] verifyingNodes;\r\n  mapping(address => uint256) verifyingNodeID;\r\n  mapping(address => uint256) nodePublicKey;\r\n\r\n  function PPoL() public {\r\n    verifyingNodes.push(address(0));\r\n  }\r\n\r\n  function addVerifyingNode(address _node, uint256 _pubKey) public onlyOwner returns(bool success) {\r\n    if (_node == address(0)) { return false; }\r\n    verifyingNodes.push(_node);\r\n    verifyingNodeID[_node] = verifyingNodes.length.sub(1);\r\n    nodePublicKey[_node] = _pubKey;\r\n    return true;\r\n  }\r\n\r\n  function removeVerifyingNode(address _node) public onlyOwner returns(bool success) {\r\n    if (!isVerifyingNode(_node)) { return false; }\r\n    delete verifyingNodes[verifyingNodeID[_node]];\r\n    delete verifyingNodeID[_node];\r\n    delete nodePublicKey[_node];\r\n    return true;\r\n  }\r\n\r\n  function isVerifyingNode(address _node) public view returns(bool) {\r\n    return verifyingNodeID[_node] != 0;\r\n  }\r\n\r\n  function ringSign(bytes _message, address _fromVNode, uint256 _prvKey, uint256[] _dummyNodeIDs, uint256[] _randNums)\r\n    public view returns(uint256[32] signature, bool success)\r\n  {\r\n    uint256[32] memory empty;\r\n    if (!isVerifyingNode(_fromVNode)\r\n        || _dummyNodeIDs.length != _randNums.length\r\n        || _dummyNodeIDs.length.mul(2).add(1) >= 32)\r\n    {\r\n      return (empty, false);\r\n    }\r\n\r\n    uint256 N = _dummyNodeIDs.length;\r\n    uint256[] memory data = new uint256[](32);\r\n    uint256 i = 0;\r\n\r\n    data[0] = 0;\r\n    data[1] = _prvKey;\r\n    data[N.add(2)] = nodePublicKey[_fromVNode];\r\n    for (i = 0; i < N; i = i.add(1)) {\r\n      if (!isVerifyingNode(verifyingNodes[_dummyNodeIDs[i]])) { return (empty, false); }\r\n      data[i.add(2)] = _randNums[i];\r\n      data[i.add(3).add(N)] = nodePublicKey[verifyingNodes[_dummyNodeIDs[i]]];\r\n    }\r\n    return (RingSign(_message, data), true);\r\n  }\r\n\r\n  function verifyProof(uint256 _timestamp, address _userAddr, bytes _userSig,\r\n    uint256[] _ringSig)\r\n    public view returns(bool isValid)\r\n  {\r\n    return ECRecovery.recover(keccak256(_timestamp), _userSig) == _userAddr\r\n      && RingVerify(_userSig, _ringSig);\r\n  }\r\n}\r\n",
  "sourcePath": "D:\\msi-cn\\Documents\\GitHub\\ethdenver\\contracts\\PPoL.sol",
  "compiler": {
    "name": "solc",
    "version": "0.4.19+commit.c4cbbb05.Emscripten.clang"
  },
  "schemaVersion": "1.0.1",
  "updatedAt": "2018-02-18T05:53:03.451Z"
}