{
  "contractName": "PPoL",
  "abi": [
    {
      "constant": true,
      "inputs": [],
      "name": "a",
      "outputs": [
        {
          "name": "",
          "type": "uint256"
        }
      ],
      "payable": false,
      "stateMutability": "view",
      "type": "function"
    },
    {
      "constant": true,
      "inputs": [
        {
          "name": "",
          "type": "address"
        }
      ],
      "name": "token_balance",
      "outputs": [
        {
          "name": "",
          "type": "uint256"
        }
      ],
      "payable": false,
      "stateMutability": "view",
      "type": "function"
    },
    {
      "constant": true,
      "inputs": [
        {
          "name": "",
          "type": "uint256"
        }
      ],
      "name": "lookup_pubkey_by_balance_populated",
      "outputs": [
        {
          "name": "",
          "type": "bool"
        }
      ],
      "payable": false,
      "stateMutability": "view",
      "type": "function"
    },
    {
      "constant": true,
      "inputs": [
        {
          "name": "",
          "type": "uint256"
        },
        {
          "name": "",
          "type": "uint256"
        }
      ],
      "name": "lookup_pubkey_by_balance",
      "outputs": [
        {
          "name": "",
          "type": "uint256"
        }
      ],
      "payable": false,
      "stateMutability": "view",
      "type": "function"
    },
    {
      "constant": true,
      "inputs": [
        {
          "name": "PubKey",
          "type": "uint256"
        }
      ],
      "name": "GetAddress",
      "outputs": [
        {
          "name": "addr",
          "type": "address"
        }
      ],
      "payable": false,
      "stateMutability": "view",
      "type": "function"
    },
    {
      "constant": true,
      "inputs": [
        {
          "name": "",
          "type": "uint256"
        }
      ],
      "name": "lookup_pubkey_by_balance_count",
      "outputs": [
        {
          "name": "",
          "type": "uint256"
        }
      ],
      "payable": false,
      "stateMutability": "view",
      "type": "function"
    },
    {
      "constant": true,
      "inputs": [
        {
          "name": "message",
          "type": "bytes"
        },
        {
          "name": "signature",
          "type": "uint256[]"
        }
      ],
      "name": "RingVerify_User",
      "outputs": [
        {
          "name": "success",
          "type": "bool"
        }
      ],
      "payable": false,
      "stateMutability": "view",
      "type": "function"
    },
    {
      "constant": true,
      "inputs": [
        {
          "name": "Pin",
          "type": "uint256"
        }
      ],
      "name": "ExpandPoint",
      "outputs": [
        {
          "name": "Pout",
          "type": "uint256[2]"
        }
      ],
      "payable": false,
      "stateMutability": "view",
      "type": "function"
    },
    {
      "constant": true,
      "inputs": [
        {
          "name": "x",
          "type": "uint256"
        }
      ],
      "name": "EvaluateCurve",
      "outputs": [
        {
          "name": "y",
          "type": "uint256"
        },
        {
          "name": "onCurve",
          "type": "bool"
        }
      ],
      "payable": false,
      "stateMutability": "view",
      "type": "function"
    },
    {
      "constant": true,
      "inputs": [
        {
          "name": "Pin",
          "type": "uint256[2]"
        }
      ],
      "name": "CompressPoint",
      "outputs": [
        {
          "name": "Pout",
          "type": "uint256"
        }
      ],
      "payable": false,
      "stateMutability": "pure",
      "type": "function"
    },
    {
      "constant": true,
      "inputs": [
        {
          "name": "p0",
          "type": "uint256[2]"
        },
        {
          "name": "s",
          "type": "uint256"
        }
      ],
      "name": "ecMul",
      "outputs": [
        {
          "name": "p1",
          "type": "uint256[2]"
        }
      ],
      "payable": false,
      "stateMutability": "view",
      "type": "function"
    },
    {
      "constant": true,
      "inputs": [],
      "name": "P",
      "outputs": [
        {
          "name": "",
          "type": "uint256"
        }
      ],
      "payable": false,
      "stateMutability": "view",
      "type": "function"
    },
    {
      "constant": true,
      "inputs": [],
      "name": "owner",
      "outputs": [
        {
          "name": "",
          "type": "address"
        }
      ],
      "payable": false,
      "stateMutability": "view",
      "type": "function"
    },
    {
      "constant": true,
      "inputs": [
        {
          "name": "",
          "type": "uint256"
        }
      ],
      "name": "G1",
      "outputs": [
        {
          "name": "",
          "type": "uint256"
        }
      ],
      "payable": false,
      "stateMutability": "view",
      "type": "function"
    },
    {
      "constant": true,
      "inputs": [
        {
          "name": "p0",
          "type": "uint256[2]"
        },
        {
          "name": "p1",
          "type": "uint256[2]"
        }
      ],
      "name": "ecAdd",
      "outputs": [
        {
          "name": "p2",
          "type": "uint256[2]"
        }
      ],
      "payable": false,
      "stateMutability": "view",
      "type": "function"
    },
    {
      "constant": true,
      "inputs": [
        {
          "name": "",
          "type": "uint256"
        }
      ],
      "name": "H",
      "outputs": [
        {
          "name": "",
          "type": "uint256"
        }
      ],
      "payable": false,
      "stateMutability": "view",
      "type": "function"
    },
    {
      "constant": false,
      "inputs": [],
      "name": "Kill",
      "outputs": [],
      "payable": false,
      "stateMutability": "nonpayable",
      "type": "function"
    },
    {
      "constant": true,
      "inputs": [],
      "name": "N",
      "outputs": [
        {
          "name": "",
          "type": "uint256"
        }
      ],
      "payable": false,
      "stateMutability": "view",
      "type": "function"
    },
    {
      "constant": true,
      "inputs": [
        {
          "name": "",
          "type": "uint256"
        }
      ],
      "name": "KeyImageUsed",
      "outputs": [
        {
          "name": "",
          "type": "bool"
        }
      ],
      "payable": false,
      "stateMutability": "view",
      "type": "function"
    },
    {
      "constant": true,
      "inputs": [
        {
          "name": "message",
          "type": "bytes"
        },
        {
          "name": "data",
          "type": "uint256[]"
        }
      ],
      "name": "RingSign_User",
      "outputs": [
        {
          "name": "signature",
          "type": "uint256[32]"
        }
      ],
      "payable": false,
      "stateMutability": "view",
      "type": "function"
    },
    {
      "constant": true,
      "inputs": [],
      "name": "ECSignMask",
      "outputs": [
        {
          "name": "",
          "type": "uint256"
        }
      ],
      "payable": false,
      "stateMutability": "view",
      "type": "function"
    },
    {
      "constant": false,
      "inputs": [
        {
          "name": "newOwner",
          "type": "address"
        }
      ],
      "name": "transferOwnership",
      "outputs": [],
      "payable": false,
      "stateMutability": "nonpayable",
      "type": "function"
    },
    {
      "inputs": [],
      "payable": false,
      "stateMutability": "nonpayable",
      "type": "constructor"
    },
    {
      "anonymous": false,
      "inputs": [
        {
          "indexed": true,
          "name": "previousOwner",
          "type": "address"
        },
        {
          "indexed": true,
          "name": "newOwner",
          "type": "address"
        }
      ],
      "name": "OwnershipTransferred",
      "type": "event"
    },
    {
      "constant": false,
      "inputs": [
        {
          "name": "_node",
          "type": "address"
        },
        {
          "name": "_pubKey",
          "type": "uint256"
        }
      ],
      "name": "addVerifyingNode",
      "outputs": [
        {
          "name": "success",
          "type": "bool"
        }
      ],
      "payable": false,
      "stateMutability": "nonpayable",
      "type": "function"
    },
    {
      "constant": false,
      "inputs": [
        {
          "name": "_node",
          "type": "address"
        }
      ],
      "name": "removeVerifyingNode",
      "outputs": [
        {
          "name": "success",
          "type": "bool"
        }
      ],
      "payable": false,
      "stateMutability": "nonpayable",
      "type": "function"
    },
    {
      "constant": true,
      "inputs": [
        {
          "name": "_message",
          "type": "bytes"
        },
        {
          "name": "_prvKey",
          "type": "uint256"
        },
        {
          "name": "_dummyNodeIDs",
          "type": "uint256[]"
        },
        {
          "name": "_randNums",
          "type": "uint256[]"
        }
      ],
      "name": "ringSign",
      "outputs": [
        {
          "name": "signature",
          "type": "uint256[32]"
        },
        {
          "name": "success",
          "type": "bool"
        }
      ],
      "payable": false,
      "stateMutability": "view",
      "type": "function"
    },
    {
      "constant": true,
      "inputs": [
        {
          "name": "_timestamp",
          "type": "uint256"
        },
        {
          "name": "_userAddr",
          "type": "address"
        },
        {
          "name": "_userSig",
          "type": "bytes"
        },
        {
          "name": "_ringSig",
          "type": "uint256[]"
        }
      ],
      "name": "verifyProof",
      "outputs": [
        {
          "name": "isValid",
          "type": "bool"
        }
      ],
      "payable": false,
      "stateMutability": "view",
      "type": "function"
    },
    {
      "constant": true,
      "inputs": [
        {
          "name": "_node",
          "type": "address"
        }
      ],
      "name": "isVerifyingNode",
      "outputs": [
        {
          "name": "",
          "type": "bool"
        }
      ],
      "payable": false,
      "stateMutability": "view",
      "type": "function"
    }
  ],
  "bytecode": "0x606060405234156200001057600080fd5b336000806101000a81548173ffffffffffffffffffffffffffffffffffffffff021916908373ffffffffffffffffffffffffffffffffffffffff16021790555033600160006101000a81548173ffffffffffffffffffffffffffffffffffffffff021916908373ffffffffffffffffffffffffffffffffffffffff160217905550600160026000600281101515620000a457fe5b01819055506002806001600281101515620000bb57fe5b01819055506200011d60028080602002604051908101604052809291908260028015620000fe576020028201915b815481526020019060010190808311620000e9575b50505050506200019b640100000000026200220d176401000000009004565b60049060026200012f9291906200041f565b50600b805480600101828162000146919062000464565b9160005260206000209001600080909190916101000a81548173ffffffffffffffffffffffffffffffffffffffff021916908373ffffffffffffffffffffffffffffffffffffffff16021790555050620004e3565b620001a562000493565b60007f30644e72e131a029b85045b68181585d2833e84879b9709143e1f593f0000001836000600281101515620001d857fe5b6020020151846001600281101515620001ed57fe5b602002015160405180838152602001828152602001925050506040518091039020600190048115156200021c57fe5b068260006002811015156200022d57fe5b6020020181815250505b801515620002b557620002728260006002811015156200025357fe5b6020020151620002dc640100000000026200146a176401000000009004565b8360016002811015156200028257fe5b602002018193508281525050508160006002811015156200029f57fe5b6020020180518091906001018152505062000237565b816000600281101515620002c557fe5b602002018051809190600190038152505050919050565b60008060008060007f30644e72e131a029b85045b68181585d97816a916871ca8d3c208c16d87cfd4786870992507f30644e72e131a029b85045b68181585d97816a916871ca8d3c208c16d87cfd4786840992507f30644e72e131a029b85045b68181585d97816a916871ca8d3c208c16d87cfd476003840892507f30644e72e131a029b85045b68181585d97816a916871ca8d3c208c16d87cfd4791507f0c19139cb84c680a6e14116da060561765e05aa45a1c72a34f082305b61f3f52905060405160208152602080820152602060408201528360608201528160808201528260a082015260208160c083600060056107d05a03f18060008114620003e357620003e8565b60c083fd5b508151965050507f30644e72e131a029b85045b68181585d97816a916871ca8d3c208c16d87cfd4785860983149350505050915091565b826002810192821562000451579160200282015b828111156200045057825182559160200191906001019062000433565b5b509050620004609190620004bb565b5090565b8154818355818115116200048e578183600052602060002091820191016200048d9190620004bb565b5b505050565b60408051908101604052806002905b6000815260200190600190039081620004a25790505090565b620004e091905b80821115620004dc576000816000905550600101620004c2565b5090565b90565b61251680620004f36000396000f30060606040526004361061015f576000357c0100000000000000000000000000000000000000000000000000000000900463ffffffff1680630879649a146101645780630ade90f5146102905780630b2d0364146102e15780630dbe671f14610332578063105ae03a1461035b57806312966985146103a85780632428766e14610402578063418ee0561461043d5780634787f1a71461047d57806351e50bfb146104e05780635c660547146105175780635da7f69e146105cc57806366230bd91461062b57806371b1c1611461066d57806371de3724146106c75780638b8fbd92146107525780638da5cb5b1461077b5780639216084d146107d0578063a6793da814610807578063a867d0ca146108e4578063bb31400914610992578063be26733c146109c9578063c9e525df146109de578063e0e5ade714610a07578063e4613fef14610a42578063e4bf28c114610b1a578063f2fde38b14610b43575b600080fd5b341561016f57600080fd5b610248600480803590602001908201803590602001908080601f016020809104026020016040519081016040528093929190818152602001838380828437820191505050505050919080359060200190919080359060200190820180359060200190808060200260200160405190810160405280939291908181526020018383602002808284378201915050505050509190803590602001908201803590602001908080602002602001604051908101604052809392919081815260200183836020028082843782019150505050505091905050610b7c565b60405180836020800280838360005b83811015610272578082015181840152602081019050610257565b50505050905001821515151581526020019250505060405180910390f35b341561029b57600080fd5b6102c7600480803573ffffffffffffffffffffffffffffffffffffffff16906020019091905050610e27565b604051808215151515815260200191505060405180910390f35b34156102ec57600080fd5b610318600480803573ffffffffffffffffffffffffffffffffffffffff16906020019091905050610fa8565b604051808215151515815260200191505060405180910390f35b341561033d57600080fd5b610345610ff4565b6040518082815260200191505060405180910390f35b341561036657600080fd5b610392600480803573ffffffffffffffffffffffffffffffffffffffff16906020019091905050611018565b6040518082815260200191505060405180910390f35b34156103b357600080fd5b6103e8600480803573ffffffffffffffffffffffffffffffffffffffff16906020019091908035906020019091905050611030565b604051808215151515815260200191505060405180910390f35b341561040d57600080fd5b61042360048080359060200190919050506111d9565b604051808215151515815260200191505060405180910390f35b341561044857600080fd5b61046760048080359060200190919080359060200190919050506111f9565b6040518082815260200191505060405180910390f35b341561048857600080fd5b61049e600480803590602001909190505061122a565b604051808273ffffffffffffffffffffffffffffffffffffffff1673ffffffffffffffffffffffffffffffffffffffff16815260200191505060405180910390f35b34156104eb57600080fd5b610501600480803590602001909190505061128f565b6040518082815260200191505060405180910390f35b341561052257600080fd5b6105b2600480803590602001908201803590602001908080601f01602080910402602001604051908101604052809392919081815260200183838082843782019150505050505091908035906020019082018035906020019080806020026020016040519081016040528093929190818152602001838360200280828437820191505050505050919050506112a7565b604051808215151515815260200191505060405180910390f35b34156105d757600080fd5b6105ed60048080359060200190919050506112bb565b6040518082600260200280838360005b838110156106185780820151818401526020810190506105fd565b5050505090500191505060405180910390f35b341561063657600080fd5b61064c600480803590602001909190505061146a565b60405180838152602001821515151581526020019250505060405180910390f35b341561067857600080fd5b6106b1600480806040019060028060200260405190810160405280929190826002602002808284378201915050505050919050506115ab565b6040518082815260200191505060405180910390f35b34156106d257600080fd5b6107146004808060400190600280602002604051908101604052809291908260026020028082843782019150505050509190803590602001909190505061160c565b6040518082600260200280838360005b8381101561073f578082015181840152602081019050610724565b5050505090500191505060405180910390f35b341561075d57600080fd5b610765611665565b6040518082815260200191505060405180910390f35b341561078657600080fd5b61078e611689565b604051808273ffffffffffffffffffffffffffffffffffffffff1673ffffffffffffffffffffffffffffffffffffffff16815260200191505060405180910390f35b34156107db57600080fd5b6107f160048080359060200190919050506116af565b6040518082815260200191505060405180910390f35b341561081257600080fd5b6108ca600480803590602001909190803573ffffffffffffffffffffffffffffffffffffffff1690602001909190803590602001908201803590602001908080601f01602080910402602001604051908101604052809392919081815260200183838082843782019150505050505091908035906020019082018035906020019080806020026020016040519081016040528093929190818152602001838360200280828437820191505050505050919050506116c9565b604051808215151515815260200191505060405180910390f35b34156108ef57600080fd5b61095460048080604001906002806020026040519081016040528092919082600260200280828437820191505050505091908060400190600280602002604051908101604052809291908260026020028082843782019150505050509190505061182d565b6040518082600260200280838360005b8381101561097f578082015181840152602081019050610964565b5050505090500191505060405180910390f35b341561099d57600080fd5b6109b36004808035906020019091905050611891565b6040518082815260200191505060405180910390f35b34156109d457600080fd5b6109dc6118ab565b005b34156109e957600080fd5b6109f1611965565b6040518082815260200191505060405180910390f35b3415610a1257600080fd5b610a286004808035906020019091905050611989565b604051808215151515815260200191505060405180910390f35b3415610a4d57600080fd5b610add600480803590602001908201803590602001908080601f01602080910402602001604051908101604052809392919081815260200183838082843782019150505050505091908035906020019082018035906020019080806020026020016040519081016040528093929190818152602001838360200280828437820191505050505050919050506119a9565b60405180826020800280838360005b83811015610b07578082015181840152602081019050610aec565b5050505090500191505060405180910390f35b3415610b2557600080fd5b610b2d6119c3565b6040518082815260200191505060405180910390f35b3415610b4e57600080fd5b610b7a600480803573ffffffffffffffffffffffffffffffffffffffff169060200190919050506119e7565b005b610b84612435565b6000610b8e612435565b6000610b9861245e565b6000610ba333610fa8565b1580610bb157508651885114155b80610be457506020610be16001610bd360028c51611b3c90919063ffffffff16565b611b7790919063ffffffff16565b10155b15610bf55783600095509550610e1a565b875192506020604051805910610c085750595b90808252806020026020018201604052509150600090506000826000815181101515610c3057fe5b906020019060200201818152505088826001815181101515610c4e57fe5b9060200190602002018181525050600090505b82811015610e0957610cc3600b8983815181101515610c7c57fe5b90602001906020020151815481101515610c9257fe5b906000526020600020900160009054906101000a900473ffffffffffffffffffffffffffffffffffffffff16610fa8565b1515610cd55783600095509550610e1a565b8681815181101515610ce357fe5b9060200190602002015182610d02600284611b7790919063ffffffff16565b815181101515610d0e57fe5b9060200190602002018181525050600d6000600b8a84815181101515610d3057fe5b90602001906020020151815481101515610d4657fe5b906000526020600020900160009054906101000a900473ffffffffffffffffffffffffffffffffffffffff1673ffffffffffffffffffffffffffffffffffffffff1673ffffffffffffffffffffffffffffffffffffffff1681526020019081526020016000205482610dd485610dc6600286611b7790919063ffffffff16565b611b7790919063ffffffff16565b815181101515610de057fe5b9060200190602002018181525050610e02600182611b7790919063ffffffff16565b9050610c61565b610e138a83611b95565b6001955095505b5050505094509492505050565b60008060009054906101000a900473ffffffffffffffffffffffffffffffffffffffff1673ffffffffffffffffffffffffffffffffffffffff163373ffffffffffffffffffffffffffffffffffffffff16141515610e8457600080fd5b610e8d82610fa8565b1515610e9c5760009050610fa3565b600b600c60008473ffffffffffffffffffffffffffffffffffffffff1673ffffffffffffffffffffffffffffffffffffffff16815260200190815260200160002054815481101515610eea57fe5b906000526020600020900160006101000a81549073ffffffffffffffffffffffffffffffffffffffff0219169055600c60008373ffffffffffffffffffffffffffffffffffffffff1673ffffffffffffffffffffffffffffffffffffffff16815260200190815260200160002060009055600d60008373ffffffffffffffffffffffffffffffffffffffff1673ffffffffffffffffffffffffffffffffffffffff16815260200190815260200160002060009055600190505b919050565b600080600c60008473ffffffffffffffffffffffffffffffffffffffff1673ffffffffffffffffffffffffffffffffffffffff1681526020019081526020016000205414159050919050565b7f0c19139cb84c680a6e14116da060561765e05aa45a1c72a34f082305b61f3f5281565b60076020528060005260406000206000915090505481565b60008060009054906101000a900473ffffffffffffffffffffffffffffffffffffffff1673ffffffffffffffffffffffffffffffffffffffff163373ffffffffffffffffffffffffffffffffffffffff1614151561108d57600080fd5b600073ffffffffffffffffffffffffffffffffffffffff168373ffffffffffffffffffffffffffffffffffffffff1614156110cb57600090506111d3565b600b80548060010182816110df9190612472565b9160005260206000209001600085909190916101000a81548173ffffffffffffffffffffffffffffffffffffffff021916908373ffffffffffffffffffffffffffffffffffffffff160217905550506111476001600b80549050611e9090919063ffffffff16565b600c60008573ffffffffffffffffffffffffffffffffffffffff1673ffffffffffffffffffffffffffffffffffffffff1681526020019081526020016000208190555081600d60008573ffffffffffffffffffffffffffffffffffffffff1673ffffffffffffffffffffffffffffffffffffffff16815260200190815260200160002081905550600190505b92915050565b60096020528060005260406000206000915054906101000a900460ff1681565b60086020528160005260406000208181548110151561121457fe5b9060005260206000209001600091509150505481565b600061123461249e565b61123d836112bb565b905080600060028110151561124e57fe5b602002015181600160028110151561126257fe5b60200201516040518083815260200182815260200192505050604051809103902060019004915050919050565b600a6020528060005260406000206000915090505481565b60006112b38383611ea9565b905092915050565b6112c361249e565b6000807f80000000000000000000000000000000000000000000000000000000000000001984168360006002811015156112f957fe5b60200201818152505061131e83600060028110151561131457fe5b602002015161146a565b809350819250505081151561136657600083600060028110151561133e57fe5b602002018181525050600083600160028110151561135857fe5b602002018181525050611463565b60007f800000000000000000000000000000000000000000000000000000000000000085161415156113fc57600180821614156113bb57808360016002811015156113ad57fe5b6020020181815250506113f7565b807f30644e72e131a029b85045b68181585d97816a916871ca8d3c208c16d87cfd47038360016002811015156113ed57fe5b6020020181815250505b611462565b6001808216141561144757807f30644e72e131a029b85045b68181585d97816a916871ca8d3c208c16d87cfd470383600160028110151561143957fe5b602002018181525050611461565b8083600160028110151561145757fe5b6020020181815250505b5b5b5050919050565b60008060008060007f30644e72e131a029b85045b68181585d97816a916871ca8d3c208c16d87cfd4786870992507f30644e72e131a029b85045b68181585d97816a916871ca8d3c208c16d87cfd4786840992507f30644e72e131a029b85045b68181585d97816a916871ca8d3c208c16d87cfd476003840892507f30644e72e131a029b85045b68181585d97816a916871ca8d3c208c16d87cfd4791507f0c19139cb84c680a6e14116da060561765e05aa45a1c72a34f082305b61f3f52905060405160208152602080820152602060408201528360608201528160808201528260a082015260208160c083600060056107d05a03f1806000811461156f57611574565b60c083fd5b508151965050507f30644e72e131a029b85045b68181585d97816a916871ca8d3c208c16d87cfd4785860983149350505050915091565b60008160006002811015156115bc57fe5b602002015190506001808360016002811015156115d557fe5b6020020151161415611607577f8000000000000000000000000000000000000000000000000000000000000000811790505b919050565b61161461249e565b6040518351815260208401516020820152826040820152604081606083600060076107d05a03f180600081146116495761164e565b608083fd5b508151835260208201516020840152505092915050565b7f30644e72e131a029b85045b68181585d97816a916871ca8d3c208c16d87cfd4781565b600160009054906101000a900473ffffffffffffffffffffffffffffffffffffffff1681565b6002816002811015156116be57fe5b016000915090505481565b60008373ffffffffffffffffffffffffffffffffffffffff1673__ECRecovery____________________________6319045a2587604051808281526020019150506040518091039020866000604051602001526040518363ffffffff167c010000000000000000000000000000000000000000000000000000000002815260040180836000191660001916815260200180602001828103825283818151815260200191508051906020019080838360005b8381101561179557808201518184015260208101905061177a565b50505050905090810190601f1680156117c25780820380516001836020036101000a031916815260200191505b50935050505060206040518083038186803b15156117df57600080fd5b6102c65a03f415156117f057600080fd5b5050506040518051905073ffffffffffffffffffffffffffffffffffffffff1614801561182357506118228383611ea9565b5b9050949350505050565b61183561249e565b60405183518152602084015160208201528251604082015260208301516060820152604081608083600060066107d05a03f180600081146118755761187a565b608083fd5b508151835260208201516020840152505092915050565b6004816002811015156118a057fe5b016000915090505481565b600160009054906101000a900473ffffffffffffffffffffffffffffffffffffffff1673ffffffffffffffffffffffffffffffffffffffff163373ffffffffffffffffffffffffffffffffffffffff161415801561194257506000600160009054906101000a900473ffffffffffffffffffffffffffffffffffffffff1673ffffffffffffffffffffffffffffffffffffffff1614155b1561194c57600080fd5b3373ffffffffffffffffffffffffffffffffffffffff16ff5b7f30644e72e131a029b85045b68181585d2833e84879b9709143e1f593f000000181565b60066020528060005260406000206000915054906101000a900460ff1681565b6119b1612435565b6119bb8383611b95565b905092915050565b7f800000000000000000000000000000000000000000000000000000000000000081565b6000809054906101000a900473ffffffffffffffffffffffffffffffffffffffff1673ffffffffffffffffffffffffffffffffffffffff163373ffffffffffffffffffffffffffffffffffffffff16141515611a4257600080fd5b600073ffffffffffffffffffffffffffffffffffffffff168173ffffffffffffffffffffffffffffffffffffffff1614151515611a7e57600080fd5b8073ffffffffffffffffffffffffffffffffffffffff166000809054906101000a900473ffffffffffffffffffffffffffffffffffffffff1673ffffffffffffffffffffffffffffffffffffffff167f8be0079c531659141344cd1fd0a4f28419497f9722a3daafe3b4186f6b6457e060405160405180910390a3806000806101000a81548173ffffffffffffffffffffffffffffffffffffffff021916908373ffffffffffffffffffffffffffffffffffffffff16021790555050565b6000806000841415611b515760009150611b70565b8284029050828482811515611b6257fe5b04141515611b6c57fe5b8091505b5092915050565b6000808284019050838110151515611b8b57fe5b8091505092915050565b611b9d612435565b600080611ba861249e565b611bb061249e565b60006006875110151515611bc357600080fd5b6020875111151515611bd457600080fd5b600060028851811515611be357fe5b06141515611bf057600080fd5b600280885103811515611bff57fe5b049450600293505b8651841015611c4c578684815181101515611c1e57fe5b906020019060200201518685602081101515611c3657fe5b6020020181815250508380600101945050611c07565b846001886000815181101515611c5e57fe5b9060200190602002015101811515611c7257fe5b069350611cb287886000815181101515611c8857fe5b906020019060200201518760020101815181101515611ca357fe5b906020019060200201516112bb565b9250611cd6876001815181101515611cc657fe5b9060200190602002015184611fcd565b9150611ce1826115ab565b866000602081101515611cf057fe5b602002018181525050611d368888896000815181101515611d0d57fe5b90602001906020020151600201815181101515611d2657fe5b9060200190602002015185611ff2565b90506000841415611d5b5780866001602081101515611d5157fe5b6020020181815250505b5b866000815181101515611d6b57fe5b9060200190602002015184141515611dfe57611da287858760020101815181101515611d9357fe5b906020019060200201516112bb565b9250611dcb88828987600201815181101515611dba57fe5b906020019060200201518686612079565b905060018401935084841415611df9576000935080866001602081101515611def57fe5b6020020181815250505b611d5c565b611e5387886000815181101515611e1157fe5b90602001906020020151600201815181101515611e2a57fe5b9060200190602002015182896001815181101515611e4457fe5b90602001906020020151612193565b86886000815181101515611e6357fe5b90602001906020020151600201602081101515611e7c57fe5b602002018181525050505050505092915050565b6000828211151515611e9e57fe5b818303905092915050565b6000611eb361249e565b611ebb61249e565b60008060006006875110151515611ed157600080fd5b600060028851811515611ee057fe5b06141515611eed57600080fd5b866001815181101515611efc57fe5b906020019060200201519250611f29876000815181101515611f1a57fe5b906020019060200201516112bb565b935060009150600280885103811515611f3e57fe5b0490505b80821015611fa557611f6f87838360020101815181101515611f6057fe5b906020019060200201516112bb565b9450611f9888848985600201815181101515611f8757fe5b906020019060200201518888612079565b9250600182019150611f42565b866001815181101515611fb457fe5b9060200190602002015183149550505050505092915050565b611fd561249e565b611fde8261220d565b9050611fea818461160c565b905092915050565b6000611ffc61249e565b61200461249e565b61200d8461220d565b9050612019818661160c565b905061206160028080602002604051908101604052809291908260028015612056576020028201915b815481526020019060010190808311612042575b50505050508661160c565b915061206e86838361232c565b925050509392505050565b600061208361249e565b61208b61249e565b61209361249e565b8560006002811015156120a257fe5b60200201518660016002811015156120b657fe5b60200201518360006002811015156120ca57fe5b602002018460016002811015156120dd57fe5b60200201828152508281525050506120f48261220d565b9050612100828961160c565b91506121486002808060200260405190810160405280929190826002801561213d576020028201915b815481526020019060010190808311612129575b50505050508861160c565b9250612154828461182d565b9150612160818861160c565b905061216c858961160c565b9250612178818461182d565b905061218589838361232c565b935050505095945050505050565b60007f30644e72e131a029b85045b68181585d2833e84879b9709143e1f593f00000018284099050807f30644e72e131a029b85045b68181585d2833e84879b9709143e1f593f00000010390507f30644e72e131a029b85045b68181585d2833e84879b9709143e1f593f000000181850890509392505050565b61221561249e565b60007f30644e72e131a029b85045b68181585d2833e84879b9709143e1f593f000000183600060028110151561224757fe5b602002015184600160028110151561225b57fe5b6020020151604051808381526020018281526020019250505060405180910390206001900481151561228957fe5b0682600060028110151561229957fe5b6020020181815250505b801515612306576122c68260006002811015156122bc57fe5b602002015161146a565b8360016002811015156122d557fe5b602002018193508281525050508160006002811015156122f157fe5b602002018051809190600101815250506122a3565b81600060028110151561231557fe5b602002018051809190600190038152505050919050565b60007f30644e72e131a029b85045b68181585d2833e84879b9709143e1f593f00000018484600060028110151561235f57fe5b602002015185600160028110151561237357fe5b602002015185600060028110151561238757fe5b602002015186600160028110151561239b57fe5b60200201516040518086805190602001908083835b6020831015156123d557805182526020820191506020810190506020830392506123b0565b6001836020036101000a0380198251168184511680821785525050505050509050018581526020018481526020018381526020018281526020019550505050505060405180910390206001900481151561242b57fe5b0690509392505050565b610400604051908101604052806020905b60008152602001906001900390816124465790505090565b602060405190810160405280600081525090565b8154818355818115116124995781836000526020600020918201910161249891906124c5565b5b505050565b60408051908101604052806002905b60008152602001906001900390816124ad5790505090565b6124e791905b808211156124e35760008160009055506001016124cb565b5090565b905600a165627a7a723058205a86f219cf004a1a07d437a1dcd5d01c331a0302aa6a0d93cf770e4282b90ad20029",
  "source": "pragma solidity ^0.4.18;\r\n\r\nimport 'zeppelin-solidity/contracts/ECRecovery.sol';\r\nimport 'zeppelin-solidity/contracts/ownership/Ownable.sol';\r\nimport 'zeppelin-solidity/contracts/math/SafeMath.sol';\r\nimport './RingSig.sol';\r\n\r\ncontract PPoL is Ownable, RingMixerV2 {\r\n  using SafeMath for uint256;\r\n\r\n  modifier onlyNode { require(isVerifyingNode(msg.sender)); _; }\r\n\r\n  address[] verifyingNodes;\r\n  mapping(address => uint256) verifyingNodeID;\r\n  mapping(address => uint256) nodePublicKey;\r\n\r\n  function PPoL() public {\r\n    verifyingNodes.push(address(0));\r\n  }\r\n\r\n  function addVerifyingNode(address _node, uint256 _pubKey) public onlyOwner returns(bool success) {\r\n    if (_node == address(0)) { return false; }\r\n    verifyingNodes.push(_node);\r\n    verifyingNodeID[_node] = verifyingNodes.length.sub(1);\r\n    nodePublicKey[_node] = _pubKey;\r\n    return true;\r\n  }\r\n\r\n  function removeVerifyingNode(address _node) public onlyOwner returns(bool success) {\r\n    if (!isVerifyingNode(_node)) { return false; }\r\n    delete verifyingNodes[verifyingNodeID[_node]];\r\n    delete verifyingNodeID[_node];\r\n    delete nodePublicKey[_node];\r\n    return true;\r\n  }\r\n\r\n  function ringSign(bytes _message, uint256 _prvKey, uint256[] _dummyNodeIDs, uint256[] _randNums)\r\n    public view returns(uint256[32] signature, bool success)\r\n  {\r\n    uint256[32] memory empty;\r\n    if (!isVerifyingNode(msg.sender)\r\n        || _dummyNodeIDs.length != _randNums.length\r\n        || _dummyNodeIDs.length.mul(2).add(1) >= 32)\r\n    {\r\n      return (empty, false);\r\n    }\r\n\r\n    uint256 N = _dummyNodeIDs.length;\r\n    uint256[] memory data = new uint256[](32);\r\n    uint256 i = 0;\r\n\r\n    data[0] = 0;\r\n    data[1] = _prvKey;\r\n    for (i = 0; i < N; i = i.add(1)) {\r\n      if (!isVerifyingNode(verifyingNodes[_dummyNodeIDs[i]])) { return (empty, false); }\r\n      data[i.add(2)] = _randNums[i];\r\n      data[i.add(2).add(N)] = nodePublicKey[verifyingNodes[_dummyNodeIDs[i]]];\r\n    }\r\n    return (RingSign(_message, data), true);\r\n  }\r\n\r\n  function verifyProof(uint256 _timestamp, address _userAddr, bytes _userSig,\r\n    uint256[] _ringSig)\r\n    public view returns(bool isValid)\r\n  {\r\n    return ECRecovery.recover(keccak256(_timestamp), _userSig) == _userAddr\r\n      && RingVerify(_userSig, _ringSig);\r\n  }\r\n\r\n  function isVerifyingNode(address _node) public view returns(bool) {\r\n    return verifyingNodeID[_node] != 0;\r\n  }\r\n}\r\n",
  "sourcePath": "D:\\msi-cn\\Documents\\GitHub\\ethdenver\\contracts\\PPoL.sol",
  "compiler": {
    "name": "solc",
    "version": "0.4.19+commit.c4cbbb05.Emscripten.clang"
  },
  "schemaVersion": "1.0.1",
  "updatedAt": "2018-02-18T00:05:33.130Z"
}