{
  "contractName": "RingMixerV2",
  "abi": [
    {
      "constant": true,
      "inputs": [],
      "name": "a",
      "outputs": [
        {
          "name": "",
          "type": "uint256"
        }
      ],
      "payable": false,
      "stateMutability": "view",
      "type": "function"
    },
    {
      "constant": true,
      "inputs": [
        {
          "name": "",
          "type": "address"
        }
      ],
      "name": "token_balance",
      "outputs": [
        {
          "name": "",
          "type": "uint256"
        }
      ],
      "payable": false,
      "stateMutability": "view",
      "type": "function"
    },
    {
      "constant": true,
      "inputs": [
        {
          "name": "",
          "type": "uint256"
        }
      ],
      "name": "lookup_pubkey_by_balance_populated",
      "outputs": [
        {
          "name": "",
          "type": "bool"
        }
      ],
      "payable": false,
      "stateMutability": "view",
      "type": "function"
    },
    {
      "constant": true,
      "inputs": [
        {
          "name": "",
          "type": "uint256"
        },
        {
          "name": "",
          "type": "uint256"
        }
      ],
      "name": "lookup_pubkey_by_balance",
      "outputs": [
        {
          "name": "",
          "type": "uint256"
        }
      ],
      "payable": false,
      "stateMutability": "view",
      "type": "function"
    },
    {
      "constant": true,
      "inputs": [
        {
          "name": "",
          "type": "uint256"
        }
      ],
      "name": "lookup_pubkey_by_balance_count",
      "outputs": [
        {
          "name": "",
          "type": "uint256"
        }
      ],
      "payable": false,
      "stateMutability": "view",
      "type": "function"
    },
    {
      "constant": true,
      "inputs": [],
      "name": "P",
      "outputs": [
        {
          "name": "",
          "type": "uint256"
        }
      ],
      "payable": false,
      "stateMutability": "view",
      "type": "function"
    },
    {
      "constant": true,
      "inputs": [],
      "name": "owner",
      "outputs": [
        {
          "name": "",
          "type": "address"
        }
      ],
      "payable": false,
      "stateMutability": "view",
      "type": "function"
    },
    {
      "constant": true,
      "inputs": [
        {
          "name": "",
          "type": "uint256"
        }
      ],
      "name": "G1",
      "outputs": [
        {
          "name": "",
          "type": "uint256"
        }
      ],
      "payable": false,
      "stateMutability": "view",
      "type": "function"
    },
    {
      "constant": true,
      "inputs": [
        {
          "name": "",
          "type": "uint256"
        }
      ],
      "name": "H",
      "outputs": [
        {
          "name": "",
          "type": "uint256"
        }
      ],
      "payable": false,
      "stateMutability": "view",
      "type": "function"
    },
    {
      "constant": true,
      "inputs": [],
      "name": "N",
      "outputs": [
        {
          "name": "",
          "type": "uint256"
        }
      ],
      "payable": false,
      "stateMutability": "view",
      "type": "function"
    },
    {
      "constant": true,
      "inputs": [
        {
          "name": "",
          "type": "uint256"
        }
      ],
      "name": "KeyImageUsed",
      "outputs": [
        {
          "name": "",
          "type": "bool"
        }
      ],
      "payable": false,
      "stateMutability": "view",
      "type": "function"
    },
    {
      "constant": true,
      "inputs": [],
      "name": "ECSignMask",
      "outputs": [
        {
          "name": "",
          "type": "uint256"
        }
      ],
      "payable": false,
      "stateMutability": "view",
      "type": "function"
    },
    {
      "inputs": [],
      "payable": false,
      "stateMutability": "nonpayable",
      "type": "constructor"
    },
    {
      "constant": false,
      "inputs": [],
      "name": "Kill",
      "outputs": [],
      "payable": false,
      "stateMutability": "nonpayable",
      "type": "function"
    },
    {
      "constant": true,
      "inputs": [
        {
          "name": "PubKey",
          "type": "uint256"
        }
      ],
      "name": "GetAddress",
      "outputs": [
        {
          "name": "addr",
          "type": "address"
        }
      ],
      "payable": false,
      "stateMutability": "view",
      "type": "function"
    },
    {
      "constant": true,
      "inputs": [
        {
          "name": "p0",
          "type": "uint256[2]"
        },
        {
          "name": "p1",
          "type": "uint256[2]"
        }
      ],
      "name": "ecAdd",
      "outputs": [
        {
          "name": "p2",
          "type": "uint256[2]"
        }
      ],
      "payable": false,
      "stateMutability": "view",
      "type": "function"
    },
    {
      "constant": true,
      "inputs": [
        {
          "name": "p0",
          "type": "uint256[2]"
        },
        {
          "name": "s",
          "type": "uint256"
        }
      ],
      "name": "ecMul",
      "outputs": [
        {
          "name": "p1",
          "type": "uint256[2]"
        }
      ],
      "payable": false,
      "stateMutability": "view",
      "type": "function"
    },
    {
      "constant": true,
      "inputs": [
        {
          "name": "Pin",
          "type": "uint256[2]"
        }
      ],
      "name": "CompressPoint",
      "outputs": [
        {
          "name": "Pout",
          "type": "uint256"
        }
      ],
      "payable": false,
      "stateMutability": "pure",
      "type": "function"
    },
    {
      "constant": true,
      "inputs": [
        {
          "name": "x",
          "type": "uint256"
        }
      ],
      "name": "EvaluateCurve",
      "outputs": [
        {
          "name": "y",
          "type": "uint256"
        },
        {
          "name": "onCurve",
          "type": "bool"
        }
      ],
      "payable": false,
      "stateMutability": "view",
      "type": "function"
    },
    {
      "constant": true,
      "inputs": [
        {
          "name": "Pin",
          "type": "uint256"
        }
      ],
      "name": "ExpandPoint",
      "outputs": [
        {
          "name": "Pout",
          "type": "uint256[2]"
        }
      ],
      "payable": false,
      "stateMutability": "view",
      "type": "function"
    },
    {
      "constant": true,
      "inputs": [
        {
          "name": "message",
          "type": "bytes"
        },
        {
          "name": "data",
          "type": "uint256[]"
        }
      ],
      "name": "RingSign_User",
      "outputs": [
        {
          "name": "signature",
          "type": "uint256[32]"
        }
      ],
      "payable": false,
      "stateMutability": "view",
      "type": "function"
    },
    {
      "constant": true,
      "inputs": [
        {
          "name": "message",
          "type": "bytes"
        },
        {
          "name": "signature",
          "type": "uint256[]"
        }
      ],
      "name": "RingVerify_User",
      "outputs": [
        {
          "name": "success",
          "type": "bool"
        }
      ],
      "payable": false,
      "stateMutability": "view",
      "type": "function"
    }
  ],
  "bytecode": "0x606060405234156200001057600080fd5b336000806101000a81548173ffffffffffffffffffffffffffffffffffffffff021916908373ffffffffffffffffffffffffffffffffffffffff16021790555060018060006002811015156200006257fe5b018190555060026001806002811015156200007957fe5b0181905550620000dc6001600280602002604051908101604052809291908260028015620000bd576020028201915b815481526020019060010190808311620000a8575b5050505050620000f56401000000000262001540176401000000009004565b6003906002620000ee92919062000379565b506200040e565b620000ff620003be565b60007f30644e72e131a029b85045b68181585d2833e84879b9709143e1f593f00000018360006002811015156200013257fe5b60200201518460016002811015156200014757fe5b602002015160405180838152602001828152602001925050506040518091039020600190048115156200017657fe5b068260006002811015156200018757fe5b6020020181815250505b8015156200020f57620001cc826000600281101515620001ad57fe5b6020020151620002366401000000000262000ac9176401000000009004565b836001600281101515620001dc57fe5b60200201819350828152505050816000600281101515620001f957fe5b6020020180518091906001018152505062000191565b8160006002811015156200021f57fe5b602002018051809190600190038152505050919050565b60008060008060007f30644e72e131a029b85045b68181585d97816a916871ca8d3c208c16d87cfd4786870992507f30644e72e131a029b85045b68181585d97816a916871ca8d3c208c16d87cfd4786840992507f30644e72e131a029b85045b68181585d97816a916871ca8d3c208c16d87cfd476003840892507f30644e72e131a029b85045b68181585d97816a916871ca8d3c208c16d87cfd4791507f0c19139cb84c680a6e14116da060561765e05aa45a1c72a34f082305b61f3f52905060405160208152602080820152602060408201528360608201528160808201528260a082015260208160c083600060056107d05a03f180600081146200033d5762000342565b60c083fd5b508151965050507f30644e72e131a029b85045b68181585d97816a916871ca8d3c208c16d87cfd4785860983149350505050915091565b8260028101928215620003ab579160200282015b82811115620003aa5782518255916020019190600101906200038d565b5b509050620003ba9190620003e6565b5090565b60408051908101604052806002905b6000815260200190600190039081620003cd5790505090565b6200040b91905b8082111562000407576000816000905550600101620003ed565b5090565b90565b6117e4806200041e6000396000f30060606040526004361061011d576000357c0100000000000000000000000000000000000000000000000000000000900463ffffffff1680630dbe671f14610122578063105ae03a1461014b5780632428766e14610198578063418ee056146101d35780634787f1a71461021357806351e50bfb146102765780635c660547146102ad5780635da7f69e1461036257806366230bd9146103c157806371b1c1611461040357806371de37241461045d5780638b8fbd92146104e85780638da5cb5b146105115780639216084d14610566578063a867d0ca1461059d578063bb3140091461064b578063be26733c14610682578063c9e525df14610697578063e0e5ade7146106c0578063e4613fef146106fb578063e4bf28c1146107d3575b600080fd5b341561012d57600080fd5b6101356107fc565b6040518082815260200191505060405180910390f35b341561015657600080fd5b610182600480803573ffffffffffffffffffffffffffffffffffffffff16906020019091905050610820565b6040518082815260200191505060405180910390f35b34156101a357600080fd5b6101b96004808035906020019091905050610838565b604051808215151515815260200191505060405180910390f35b34156101de57600080fd5b6101fd6004808035906020019091908035906020019091905050610858565b6040518082815260200191505060405180910390f35b341561021e57600080fd5b6102346004808035906020019091905050610889565b604051808273ffffffffffffffffffffffffffffffffffffffff1673ffffffffffffffffffffffffffffffffffffffff16815260200191505060405180910390f35b341561028157600080fd5b61029760048080359060200190919050506108ee565b6040518082815260200191505060405180910390f35b34156102b857600080fd5b610348600480803590602001908201803590602001908080601f0160208091040260200160405190810160405280939291908181526020018383808284378201915050505050509190803590602001908201803590602001908080602002602001604051908101604052809392919081815260200183836020028082843782019150505050505091905050610906565b604051808215151515815260200191505060405180910390f35b341561036d57600080fd5b610383600480803590602001909190505061091a565b6040518082600260200280838360005b838110156103ae578082015181840152602081019050610393565b5050505090500191505060405180910390f35b34156103cc57600080fd5b6103e26004808035906020019091905050610ac9565b60405180838152602001821515151581526020019250505060405180910390f35b341561040e57600080fd5b61044760048080604001906002806020026040519081016040528092919082600260200280828437820191505050505091905050610c0a565b6040518082815260200191505060405180910390f35b341561046857600080fd5b6104aa60048080604001906002806020026040519081016040528092919082600260200280828437820191505050505091908035906020019091905050610c6b565b6040518082600260200280838360005b838110156104d55780820151818401526020810190506104ba565b5050505090500191505060405180910390f35b34156104f357600080fd5b6104fb610cc4565b6040518082815260200191505060405180910390f35b341561051c57600080fd5b610524610ce8565b604051808273ffffffffffffffffffffffffffffffffffffffff1673ffffffffffffffffffffffffffffffffffffffff16815260200191505060405180910390f35b341561057157600080fd5b6105876004808035906020019091905050610d0d565b6040518082815260200191505060405180910390f35b34156105a857600080fd5b61060d600480806040019060028060200260405190810160405280929190826002602002808284378201915050505050919080604001906002806020026040519081016040528092919082600260200280828437820191505050505091905050610d27565b6040518082600260200280838360005b8381101561063857808201518184015260208101905061061d565b5050505090500191505060405180910390f35b341561065657600080fd5b61066c6004808035906020019091905050610d8b565b6040518082815260200191505060405180910390f35b341561068d57600080fd5b610695610da5565b005b34156106a257600080fd5b6106aa610e5d565b6040518082815260200191505060405180910390f35b34156106cb57600080fd5b6106e16004808035906020019091905050610e81565b604051808215151515815260200191505060405180910390f35b341561070657600080fd5b610796600480803590602001908201803590602001908080601f0160208091040260200160405190810160405280939291908181526020018383808284378201915050505050509190803590602001908201803590602001908080602002602001604051908101604052809392919081815260200183836020028082843782019150505050505091905050610ea1565b60405180826020800280838360005b838110156107c05780820151818401526020810190506107a5565b5050505090500191505060405180910390f35b34156107de57600080fd5b6107e6610ebb565b6040518082815260200191505060405180910390f35b7f0c19139cb84c680a6e14116da060561765e05aa45a1c72a34f082305b61f3f5281565b60066020528060005260406000206000915090505481565b60086020528060005260406000206000915054906101000a900460ff1681565b60076020528160005260406000208181548110151561087357fe5b9060005260206000209001600091509150505481565b6000610893611768565b61089c8361091a565b90508060006002811015156108ad57fe5b60200201518160016002811015156108c157fe5b60200201516040518083815260200182815260200192505050604051809103902060019004915050919050565b60096020528060005260406000206000915090505481565b60006109128383610edf565b905092915050565b610922611768565b6000807f800000000000000000000000000000000000000000000000000000000000000019841683600060028110151561095857fe5b60200201818152505061097d83600060028110151561097357fe5b6020020151610ac9565b80935081925050508115156109c557600083600060028110151561099d57fe5b60200201818152505060008360016002811015156109b757fe5b602002018181525050610ac2565b60007f80000000000000000000000000000000000000000000000000000000000000008516141515610a5b5760018082161415610a1a5780836001600281101515610a0c57fe5b602002018181525050610a56565b807f30644e72e131a029b85045b68181585d97816a916871ca8d3c208c16d87cfd4703836001600281101515610a4c57fe5b6020020181815250505b610ac1565b60018082161415610aa657807f30644e72e131a029b85045b68181585d97816a916871ca8d3c208c16d87cfd4703836001600281101515610a9857fe5b602002018181525050610ac0565b80836001600281101515610ab657fe5b6020020181815250505b5b5b5050919050565b60008060008060007f30644e72e131a029b85045b68181585d97816a916871ca8d3c208c16d87cfd4786870992507f30644e72e131a029b85045b68181585d97816a916871ca8d3c208c16d87cfd4786840992507f30644e72e131a029b85045b68181585d97816a916871ca8d3c208c16d87cfd476003840892507f30644e72e131a029b85045b68181585d97816a916871ca8d3c208c16d87cfd4791507f0c19139cb84c680a6e14116da060561765e05aa45a1c72a34f082305b61f3f52905060405160208152602080820152602060408201528360608201528160808201528260a082015260208160c083600060056107d05a03f18060008114610bce57610bd3565b60c083fd5b508151965050507f30644e72e131a029b85045b68181585d97816a916871ca8d3c208c16d87cfd4785860983149350505050915091565b6000816000600281101515610c1b57fe5b60200201519050600180836001600281101515610c3457fe5b6020020151161415610c66577f8000000000000000000000000000000000000000000000000000000000000000811790505b919050565b610c73611768565b6040518351815260208401516020820152826040820152604081606083600060076107d05a03f18060008114610ca857610cad565b608083fd5b508151835260208201516020840152505092915050565b7f30644e72e131a029b85045b68181585d97816a916871ca8d3c208c16d87cfd4781565b6000809054906101000a900473ffffffffffffffffffffffffffffffffffffffff1681565b600181600281101515610d1c57fe5b016000915090505481565b610d2f611768565b60405183518152602084015160208201528251604082015260208301516060820152604081608083600060066107d05a03f18060008114610d6f57610d74565b608083fd5b508151835260208201516020840152505092915050565b600381600281101515610d9a57fe5b016000915090505481565b6000809054906101000a900473ffffffffffffffffffffffffffffffffffffffff1673ffffffffffffffffffffffffffffffffffffffff163373ffffffffffffffffffffffffffffffffffffffff1614158015610e3a575060008060009054906101000a900473ffffffffffffffffffffffffffffffffffffffff1673ffffffffffffffffffffffffffffffffffffffff1614155b15610e4457600080fd5b3373ffffffffffffffffffffffffffffffffffffffff16ff5b7f30644e72e131a029b85045b68181585d2833e84879b9709143e1f593f000000181565b60056020528060005260406000206000915054906101000a900460ff1681565b610ea961178f565b610eb38383611003565b905092915050565b7f800000000000000000000000000000000000000000000000000000000000000081565b6000610ee9611768565b610ef1611768565b60008060006006875110151515610f0757600080fd5b600060028851811515610f1657fe5b06141515610f2357600080fd5b866001815181101515610f3257fe5b906020019060200201519250610f5f876000815181101515610f5057fe5b9060200190602002015161091a565b935060009150600280885103811515610f7457fe5b0490505b80821015610fdb57610fa587838360020101815181101515610f9657fe5b9060200190602002015161091a565b9450610fce88848985600201815181101515610fbd57fe5b9060200190602002015188886112fe565b9250600182019150610f78565b866001815181101515610fea57fe5b9060200190602002015183149550505050505092915050565b61100b61178f565b600080611016611768565b61101e611768565b6000600687511015151561103157600080fd5b602087511115151561104257600080fd5b60006002885181151561105157fe5b0614151561105e57600080fd5b60028088510381151561106d57fe5b049450600293505b86518410156110ba57868481518110151561108c57fe5b9060200190602002015186856020811015156110a457fe5b6020020181815250508380600101945050611075565b8460018860008151811015156110cc57fe5b90602001906020020151018115156110e057fe5b069350611120878860008151811015156110f657fe5b90602001906020020151876002010181518110151561111157fe5b9060200190602002015161091a565b925061114487600181518110151561113457fe5b9060200190602002015184611419565b915061114f82610c0a565b86600060208110151561115e57fe5b6020020181815250506111a4888889600081518110151561117b57fe5b9060200190602002015160020181518110151561119457fe5b906020019060200201518561143e565b905060008414156111c957808660016020811015156111bf57fe5b6020020181815250505b5b8660008151811015156111d957fe5b906020019060200201518414151561126c576112108785876002010181518110151561120157fe5b9060200190602002015161091a565b92506112398882898760020181518110151561122857fe5b9060200190602002015186866112fe565b90506001840193508484141561126757600093508086600160208110151561125d57fe5b6020020181815250505b6111ca565b6112c18788600081518110151561127f57fe5b9060200190602002015160020181518110151561129857fe5b90602001906020020151828960018151811015156112b257fe5b906020019060200201516114c6565b868860008151811015156112d157fe5b906020019060200201516002016020811015156112ea57fe5b602002018181525050505050505092915050565b6000611308611768565b611310611768565b611318611768565b85600060028110151561132757fe5b602002015186600160028110151561133b57fe5b602002015183600060028110151561134f57fe5b6020020184600160028110151561136257fe5b602002018281525082815250505061137982611540565b90506113858289610c6b565b91506113ce60016002806020026040519081016040528092919082600280156113c3576020028201915b8154815260200190600101908083116113af575b505050505088610c6b565b92506113da8284610d27565b91506113e68188610c6b565b90506113f28589610c6b565b92506113fe8184610d27565b905061140b89838361165f565b935050505095945050505050565b611421611768565b61142a82611540565b90506114368184610c6b565b905092915050565b6000611448611768565b611450611768565b61145984611540565b90506114658186610c6b565b90506114ae60016002806020026040519081016040528092919082600280156114a3576020028201915b81548152602001906001019080831161148f575b505050505086610c6b565b91506114bb86838361165f565b925050509392505050565b60007f30644e72e131a029b85045b68181585d2833e84879b9709143e1f593f00000018284099050807f30644e72e131a029b85045b68181585d2833e84879b9709143e1f593f00000010390507f30644e72e131a029b85045b68181585d2833e84879b9709143e1f593f000000181850890509392505050565b611548611768565b60007f30644e72e131a029b85045b68181585d2833e84879b9709143e1f593f000000183600060028110151561157a57fe5b602002015184600160028110151561158e57fe5b602002015160405180838152602001828152602001925050506040518091039020600190048115156115bc57fe5b068260006002811015156115cc57fe5b6020020181815250505b801515611639576115f98260006002811015156115ef57fe5b6020020151610ac9565b83600160028110151561160857fe5b6020020181935082815250505081600060028110151561162457fe5b602002018051809190600101815250506115d6565b81600060028110151561164857fe5b602002018051809190600190038152505050919050565b60007f30644e72e131a029b85045b68181585d2833e84879b9709143e1f593f00000018484600060028110151561169257fe5b60200201518560016002811015156116a657fe5b60200201518560006002811015156116ba57fe5b60200201518660016002811015156116ce57fe5b60200201516040518086805190602001908083835b60208310151561170857805182526020820191506020810190506020830392506116e3565b6001836020036101000a0380198251168184511680821785525050505050509050018581526020018481526020018381526020018281526020019550505050505060405180910390206001900481151561175e57fe5b0690509392505050565b60408051908101604052806002905b60008152602001906001900390816117775790505090565b610400604051908101604052806020905b60008152602001906001900390816117a057905050905600a165627a7a723058208ba022874fe30427587ae0c93ce9d783414eaee595ab97a756d6969b43279b270029",
  "source": "pragma solidity ^0.4.17;\r\n\r\n/**\r\n * @author /u/ANDREWTHEPLEB@Reddit\r\n */\r\ncontract RingMixerV2 {\r\n    //Debug Code\r\n    address public owner;\r\n    function RingMixerV2() public {\r\n        //Debug Code\r\n        owner = msg.sender;\r\n\r\n        G1[0] = 1;\r\n        G1[1] = 2;\r\n        H = HashPoint(G1);\r\n    }\r\n\r\n    function Kill() public {\r\n        if ( (msg.sender != owner) && (owner != 0) ) revert();\r\n\r\n        selfdestruct(msg.sender);\r\n    }\r\n\r\n    //alt_bn128 constants\r\n    uint256[2] public G1;\r\n    uint256[2] public H;\r\n    uint256 constant public N = 0x30644e72e131a029b85045b68181585d2833e84879b9709143e1f593f0000001;\r\n    uint256 constant public P = 0x30644e72e131a029b85045b68181585d97816a916871ca8d3c208c16d87cfd47;\r\n\r\n    //Used for Point Compression/Decompression\r\n    uint256 constant public ECSignMask = 0x8000000000000000000000000000000000000000000000000000000000000000;\r\n    uint256 constant public a = 0xc19139cb84c680a6e14116da060561765e05aa45a1c72a34f082305b61f3f52; // (p+1)/4\r\n\r\n    //Storage of Spent Key Images\r\n    mapping (uint256 => bool) public KeyImageUsed;\r\n\r\n    //Storage of Token Balances\r\n    mapping (address => uint256) public token_balance;\r\n\r\n    //Convenience tables for looking up acceptable mix-in keys\r\n    mapping (uint256 => uint256[]) public lookup_pubkey_by_balance;\r\n    mapping (uint256 => bool) public lookup_pubkey_by_balance_populated;\r\n    mapping (uint256 => uint256) public lookup_pubkey_by_balance_count;\r\n\r\n    //Address Functions - Convert compressed public key into RingMixer address\r\n    function GetAddress(uint256 PubKey)\r\n        public constant returns (address addr)\r\n    {\r\n        uint256[2] memory temp;\r\n        temp = ExpandPoint(PubKey);\r\n        addr = address( keccak256(temp[0], temp[1]) );\r\n    }\r\n\r\n    //Base EC Functions\r\n    function ecAdd(uint256[2] p0, uint256[2] p1)\r\n        public constant returns (uint256[2] p2)\r\n    {\r\n        assembly {\r\n            //Get Free Memory Pointer\r\n            let p := mload(0x40)\r\n\r\n            //Store Data for ECAdd Call\r\n            mstore(p, mload(p0))\r\n            mstore(add(p, 0x20), mload(add(p0, 0x20)))\r\n            mstore(add(p, 0x40), mload(p1))\r\n            mstore(add(p, 0x60), mload(add(p1, 0x20)))\r\n\r\n            //Call ECAdd\r\n            let success := call(sub(gas, 2000), 0x06, 0, p, 0x80, p, 0x40)\r\n\r\n            // Use \"invalid\" to make gas estimation work\r\n \t\t\tswitch success case 0 { revert(p, 0x80) }\r\n\r\n \t\t\t//Store Return Data\r\n \t\t\tmstore(p2, mload(p))\r\n \t\t\tmstore(add(p2, 0x20), mload(add(p,0x20)))\r\n        }\r\n    }\r\n\r\n    function ecMul(uint256[2] p0, uint256 s)\r\n        public constant returns (uint256[2] p1)\r\n    {\r\n        assembly {\r\n            //Get Free Memory Pointer\r\n            let p := mload(0x40)\r\n\r\n            //Store Data for ECMul Call\r\n            mstore(p, mload(p0))\r\n            mstore(add(p, 0x20), mload(add(p0, 0x20)))\r\n            mstore(add(p, 0x40), s)\r\n\r\n            //Call ECAdd\r\n            let success := call(sub(gas, 2000), 0x07, 0, p, 0x60, p, 0x40)\r\n\r\n            // Use \"invalid\" to make gas estimation work\r\n \t\t\tswitch success case 0 { revert(p, 0x80) }\r\n\r\n \t\t\t//Store Return Data\r\n \t\t\tmstore(p1, mload(p))\r\n \t\t\tmstore(add(p1, 0x20), mload(add(p,0x20)))\r\n        }\r\n    }\r\n\r\n    function CompressPoint(uint256[2] Pin)\r\n        public pure returns (uint256 Pout)\r\n    {\r\n        //Store x value\r\n        Pout = Pin[0];\r\n\r\n        //Determine Sign\r\n        if ((Pin[1] & 0x1) == 0x1) {\r\n            Pout |= ECSignMask;\r\n        }\r\n    }\r\n\r\n    function EvaluateCurve(uint256 x)\r\n        public constant returns (uint256 y, bool onCurve)\r\n    {\r\n        uint256 y_squared = mulmod(x,x, P);\r\n        y_squared = mulmod(y_squared, x, P);\r\n        y_squared = addmod(y_squared, 3, P);\r\n\r\n        uint256 p_local = P;\r\n        uint256 a_local = a;\r\n\r\n        assembly {\r\n            //Get Free Memory Pointer\r\n            let p := mload(0x40)\r\n\r\n            //Store Data for Big Int Mod Exp Call\r\n            mstore(p, 0x20)                 //Length of Base\r\n            mstore(add(p, 0x20), 0x20)      //Length of Exponent\r\n            mstore(add(p, 0x40), 0x20)      //Length of Modulus\r\n            mstore(add(p, 0x60), y_squared) //Base\r\n            mstore(add(p, 0x80), a_local)   //Exponent\r\n            mstore(add(p, 0xA0), p_local)   //Modulus\r\n\r\n            //Call Big Int Mod Exp\r\n            let success := call(sub(gas, 2000), 0x05, 0, p, 0xC0, p, 0x20)\r\n\r\n            // Use \"invalid\" to make gas estimation work\r\n \t\t\tswitch success case 0 { revert(p, 0xC0) }\r\n\r\n \t\t\t//Store Return Data\r\n \t\t\ty := mload(p)\r\n        }\r\n\r\n        //Check Answer\r\n        onCurve = (y_squared == mulmod(y, y, P));\r\n    }\r\n\r\n    function ExpandPoint(uint256 Pin)\r\n        public constant returns (uint256[2] Pout)\r\n    {\r\n        //Get x value (mask out sign bit)\r\n        Pout[0] = Pin & (~ECSignMask);\r\n\r\n        //Get y value\r\n        bool onCurve;\r\n        uint256 y;\r\n        (y, onCurve) = EvaluateCurve(Pout[0]);\r\n\r\n        //TODO: Find better failure case for point not on curve\r\n        if (!onCurve) {\r\n            Pout[0] = 0;\r\n            Pout[1] = 0;\r\n        }\r\n        else {\r\n            //Use Positive Y\r\n            if ((Pin & ECSignMask) != 0) {\r\n                if ((y & 0x1) == 0x1) {\r\n                    Pout[1] = y;\r\n                } else {\r\n                    Pout[1] = P - y;\r\n                }\r\n            }\r\n            //Use Negative Y\r\n            else {\r\n                if ((y & 0x1) == 0x1) {\r\n                    Pout[1] = P - y;\r\n                } else {\r\n                    Pout[1] = y;\r\n                }\r\n            }\r\n        }\r\n    }\r\n\r\n    //=====Ring Signature Functions=====\r\n    function HashFunction(bytes message, uint256[2] left, uint256[2] right)\r\n        internal pure returns (uint256 h)\r\n    {\r\n        return (uint256(keccak256(message, left[0], left[1], right[0], right[1])) % N);\r\n    }\r\n\r\n    //Return H = alt_bn128 evaluated at keccak256(p)\r\n    function HashPoint(uint256[2] p)\r\n        internal constant returns (uint256[2] h)\r\n    {\r\n        bool onCurve;\r\n        h[0] = uint256(keccak256(p[0], p[1])) % N;\r\n\r\n        while(!onCurve) {\r\n            (h[1], onCurve) = EvaluateCurve(h[0]);\r\n            h[0]++;\r\n        }\r\n        h[0]--;\r\n    }\r\n\r\n    function KeyImage(uint256 xk, uint256[2] Pk)\r\n        internal constant returns (uint256[2] Ix)\r\n    {\r\n        //Ix = xk * HashPoint(Pk)\r\n        Ix = HashPoint(Pk);\r\n        Ix = ecMul(Ix, xk);\r\n    }\r\n\r\n    function RingStartingSegment(bytes message, uint256 alpha, uint256[2] P0)\r\n        internal constant returns (uint256 c0)\r\n    {\r\n        //Memory Registers\r\n        uint256[2] memory left;\r\n        uint256[2] memory right;\r\n\r\n        right = HashPoint(P0);\r\n        right = ecMul(right, alpha);\r\n        left = ecMul(G1, alpha);\r\n\r\n        c0 = HashFunction(message, left, right);\r\n    }\r\n\r\n    function RingSegment(bytes message, uint256 c0, uint256 s0, uint256[2] P0, uint256[2] Ix)\r\n        internal constant returns (uint256 c1)\r\n    {\r\n        //Memory Registers\r\n        uint256[2] memory temp;\r\n        uint256[2] memory left;\r\n        uint256[2] memory right;\r\n\r\n        //Deserialize Point\r\n        (left[0], left[1]) = (P0[0], P0[1]);\r\n        right = HashPoint(left);\r\n\r\n        //Calculate left = c*P0 + s0*G1)\r\n        left = ecMul(left, c0);\r\n        temp = ecMul(G1, s0);\r\n        left = ecAdd(left, temp);\r\n\r\n        //Calculate right = s0*H(P0) + c*Ix\r\n        right = ecMul(right, s0);\r\n        temp = ecMul(Ix, c0);\r\n        right = ecAdd(right, temp);\r\n\r\n        c1 = HashFunction(message, left, right);\r\n    }\r\n\r\n    //SubMul = (alpha - c*xk) % N\r\n    function SubMul(uint256 alpha, uint256 c, uint256 xk)\r\n        internal pure returns (uint256 s)\r\n    {\r\n        s = mulmod(c, xk, N);\r\n        s = N - s;\r\n        s = addmod(alpha, s, N);\r\n    }\r\n\r\n    //=== RingSignatureN ===\r\n    //Inputs:\r\n    //  message (bytes) - to be signed by the ring signature\r\n    //  data (uint256[2*N+2]) - required data to form the signature where N is the number of Public Keys (ring size)\r\n    //      data[0] - index from 0 to (N-1) specifying which Public Key has a known private key\r\n    //      data[1] - corrosponding private key for PublicKey[k]\r\n    //      data[2   ... 2+(N-1)] - Random Numbers - total of N random numbers\r\n    //      data[2+N ... 2*N+1  ] - Public Keys (compressed) - total of N Public Keys\r\n    //      e.g. N=3; data = {k, PrivateKey_k, random0, random1, random2, PubKey0, PubKey1, PubKey2 }\r\n    //\r\n    //Outputs:\r\n    //  signature (uint256[32]) - resulting signature\r\n    //      signature[0] - keyimage for private key (compressed)\r\n    //      signature[1] - c0 - start of ring signature - scaler for PublicKey[0]\r\n    //      signature[2     ... 2+(N-1)] - s0...s[N-1], scalar for G1\r\n    //      signature[2+N   ... 2*N+1  ] - Public Keys (compressed) - total of N Public Keys\r\n    //      signature[2*N+2 ... 31     ] - Padding (0)\r\n    //      e.g. N=3; signature = { Ik, c0, s0, s1, s2, PubKey0, PubKey1, PubKey2 }\r\n    function RingSign(bytes message, uint256[] data)\r\n        internal constant returns (uint256[32] signature)\r\n    {\r\n        //Check Array Lengths\r\n        require( data.length >= 6 ); //Minimum size (2 PubKeys) = (2*2+2) = 6\r\n        require( data.length <= 32); //Max size - will only output 32 uint256's\r\n        require( (data.length % 2) == 0 ); //data.length must be even\r\n        uint256 ring_size = (data.length - 2) / 2;\r\n        uint i;\r\n\r\n        //Copy Random Numbers (most will become s-values) and Public Keys\r\n        for (i = 2; i < data.length; i++) {\r\n            signature[i] = data[i];\r\n        }\r\n\r\n        //Memory Registers\r\n        uint256[2] memory pubkey;\r\n        uint256[2] memory keyimage;\r\n        uint256 c;\r\n\r\n        //Setup Indices\r\n        i = (data[0] + 1) % ring_size;\r\n\r\n        //Calculate Key Image\r\n        pubkey = ExpandPoint(data[2+ring_size+data[0]]);\r\n        keyimage = KeyImage(data[1], pubkey);\r\n        signature[0] = CompressPoint(keyimage);\r\n\r\n        //Calculate Starting c = hash( message, alpha*G1, alpha*HashPoint(Pk) )\r\n        c = RingStartingSegment(message, data[2+data[0]], pubkey);\r\n        if (i == 0) {\r\n            signature[1] = c;\r\n        }\r\n\r\n        for (; i != data[0];) {\r\n            //Deserialize Point and calculate next Ring Segment\r\n            pubkey = ExpandPoint(data[2+ring_size+i]);\r\n\r\n            c = RingSegment(message, c, data[2+i], pubkey, keyimage);\r\n\r\n            //Increment Counters\r\n            i = i + 1;\r\n\r\n            // Roll counters over\r\n            if (i == ring_size) {\r\n                i = 0;\r\n                signature[1] = c;\r\n            }\r\n        }\r\n\r\n        //Calculate s s.t. alpha*G1 = c1*P1 + s1*G1 = (c1*x1 + s1) * G1\r\n        //s = alpha - c1*x1\r\n        signature[2+data[0]] = SubMul(data[2+data[0]], c, data[1]);\r\n    }\r\n\r\n    function RingSign_User(bytes message, uint256[] data)\r\n        public constant returns (uint256[32] signature)\r\n    {\r\n        return RingSign(message, data);\r\n    }\r\n\r\n    //=== RingVerifyN ===\r\n    //Inputs:\r\n    //  message (bytes) - signed by the ring signature\r\n    //  signature (uint256[2*N+2]) - ring signature\r\n    //      signature[0] - keyimage for private key (compressed)\r\n    //      signature[1] - c0 - start of ring signature - scaler for PublicKey[0]\r\n    //      signature[2     ... 2+(N-1)] - s0...s[N-1], scalar for G1\r\n    //      signature[2+N   ... 2*N+1  ] - Public Keys (compressed) - total of N Public Keys\r\n    //      signature[2*N+2 ... 31     ] - Padding (0)\r\n    //      e.g. N=3; signature = { Ik, c0, s0, s1, s2, PubKey0, PubKey1, PubKey2 }\r\n    //Outputs:\r\n    //  success (bool) - true/false indicating if signature is valid on message\r\n    function RingVerify(bytes message, uint256[] signature)\r\n        internal constant returns (bool success)\r\n    {\r\n        //Check Array Lengths\r\n        require( signature.length >= 6 ); //Minimum size (2 PubKeys) = (2*2+2) = 6\r\n        require( (signature.length % 2) == 0 ); //data.length must be even\r\n\r\n        //Memory Registers\r\n        uint256[2] memory pubkey;\r\n        uint256[2] memory keyimage;\r\n        uint256 c = signature[1];\r\n\r\n        //Expand Key Image\r\n        keyimage = ExpandPoint(signature[0]);\r\n\r\n        //Verify Ring\r\n        uint i = 0;\r\n        uint256 ring_size = (signature.length - 2) / 2;\r\n        for (; i < ring_size;) {\r\n            //Deserialize Point and calculate next Ring Segment\r\n            pubkey = ExpandPoint(signature[2+ring_size+i]);\r\n            c = RingSegment(message, c, signature[2+i], pubkey, keyimage);\r\n\r\n            //Increment Counters\r\n            i = i + 1;\r\n        }\r\n\r\n        success = (c == signature[1]);\r\n    }\r\n\r\n    function RingVerify_User(bytes message, uint256[] signature)\r\n        public constant returns (bool success)\r\n    {\r\n        return RingVerify(message, signature);\r\n    }\r\n}\r\n",
  "sourcePath": "D:\\msi-cn\\Documents\\GitHub\\ethdenver\\contracts\\RingSig.sol",
  "compiler": {
    "name": "solc",
    "version": "0.4.19+commit.c4cbbb05.Emscripten.clang"
  },
  "schemaVersion": "1.0.1",
  "updatedAt": "2018-02-18T00:05:33.132Z"
}