{
  "contractName": "RingMixerV2",
  "abi": [
    {
      "constant": true,
      "inputs": [],
      "name": "a",
      "outputs": [
        {
          "name": "",
          "type": "uint256"
        }
      ],
      "payable": false,
      "stateMutability": "view",
      "type": "function"
    },
    {
      "constant": true,
      "inputs": [
        {
          "name": "",
          "type": "address"
        }
      ],
      "name": "token_balance",
      "outputs": [
        {
          "name": "",
          "type": "uint256"
        }
      ],
      "payable": false,
      "stateMutability": "view",
      "type": "function"
    },
    {
      "constant": true,
      "inputs": [
        {
          "name": "",
          "type": "uint256"
        }
      ],
      "name": "lookup_pubkey_by_balance_populated",
      "outputs": [
        {
          "name": "",
          "type": "bool"
        }
      ],
      "payable": false,
      "stateMutability": "view",
      "type": "function"
    },
    {
      "constant": true,
      "inputs": [
        {
          "name": "",
          "type": "uint256"
        },
        {
          "name": "",
          "type": "uint256"
        }
      ],
      "name": "lookup_pubkey_by_balance",
      "outputs": [
        {
          "name": "",
          "type": "uint256"
        }
      ],
      "payable": false,
      "stateMutability": "view",
      "type": "function"
    },
    {
      "constant": true,
      "inputs": [
        {
          "name": "",
          "type": "uint256"
        }
      ],
      "name": "lookup_pubkey_by_balance_count",
      "outputs": [
        {
          "name": "",
          "type": "uint256"
        }
      ],
      "payable": false,
      "stateMutability": "view",
      "type": "function"
    },
    {
      "constant": true,
      "inputs": [],
      "name": "P",
      "outputs": [
        {
          "name": "",
          "type": "uint256"
        }
      ],
      "payable": false,
      "stateMutability": "view",
      "type": "function"
    },
    {
      "constant": true,
      "inputs": [],
      "name": "owner",
      "outputs": [
        {
          "name": "",
          "type": "address"
        }
      ],
      "payable": false,
      "stateMutability": "view",
      "type": "function"
    },
    {
      "constant": true,
      "inputs": [
        {
          "name": "",
          "type": "uint256"
        }
      ],
      "name": "G1",
      "outputs": [
        {
          "name": "",
          "type": "uint256"
        }
      ],
      "payable": false,
      "stateMutability": "view",
      "type": "function"
    },
    {
      "constant": true,
      "inputs": [
        {
          "name": "",
          "type": "uint256"
        }
      ],
      "name": "H",
      "outputs": [
        {
          "name": "",
          "type": "uint256"
        }
      ],
      "payable": false,
      "stateMutability": "view",
      "type": "function"
    },
    {
      "constant": true,
      "inputs": [],
      "name": "N",
      "outputs": [
        {
          "name": "",
          "type": "uint256"
        }
      ],
      "payable": false,
      "stateMutability": "view",
      "type": "function"
    },
    {
      "constant": true,
      "inputs": [
        {
          "name": "",
          "type": "uint256"
        }
      ],
      "name": "KeyImageUsed",
      "outputs": [
        {
          "name": "",
          "type": "bool"
        }
      ],
      "payable": false,
      "stateMutability": "view",
      "type": "function"
    },
    {
      "constant": true,
      "inputs": [],
      "name": "ECSignMask",
      "outputs": [
        {
          "name": "",
          "type": "uint256"
        }
      ],
      "payable": false,
      "stateMutability": "view",
      "type": "function"
    },
    {
      "inputs": [],
      "payable": false,
      "stateMutability": "nonpayable",
      "type": "constructor"
    },
    {
      "constant": false,
      "inputs": [],
      "name": "Kill",
      "outputs": [],
      "payable": false,
      "stateMutability": "nonpayable",
      "type": "function"
    },
    {
      "constant": true,
      "inputs": [
        {
          "name": "PubKey",
          "type": "uint256"
        }
      ],
      "name": "GetAddress",
      "outputs": [
        {
          "name": "addr",
          "type": "address"
        }
      ],
      "payable": false,
      "stateMutability": "view",
      "type": "function"
    },
    {
      "constant": true,
      "inputs": [
        {
          "name": "p0",
          "type": "uint256[2]"
        },
        {
          "name": "p1",
          "type": "uint256[2]"
        }
      ],
      "name": "ecAdd",
      "outputs": [
        {
          "name": "p2",
          "type": "uint256[2]"
        }
      ],
      "payable": false,
      "stateMutability": "view",
      "type": "function"
    },
    {
      "constant": true,
      "inputs": [
        {
          "name": "p0",
          "type": "uint256[2]"
        },
        {
          "name": "s",
          "type": "uint256"
        }
      ],
      "name": "ecMul",
      "outputs": [
        {
          "name": "p1",
          "type": "uint256[2]"
        }
      ],
      "payable": false,
      "stateMutability": "view",
      "type": "function"
    },
    {
      "constant": true,
      "inputs": [
        {
          "name": "Pin",
          "type": "uint256[2]"
        }
      ],
      "name": "CompressPoint",
      "outputs": [
        {
          "name": "Pout",
          "type": "uint256"
        }
      ],
      "payable": false,
      "stateMutability": "pure",
      "type": "function"
    },
    {
      "constant": true,
      "inputs": [
        {
          "name": "x",
          "type": "uint256"
        }
      ],
      "name": "EvaluateCurve",
      "outputs": [
        {
          "name": "y",
          "type": "uint256"
        },
        {
          "name": "onCurve",
          "type": "bool"
        }
      ],
      "payable": false,
      "stateMutability": "view",
      "type": "function"
    },
    {
      "constant": true,
      "inputs": [
        {
          "name": "Pin",
          "type": "uint256"
        }
      ],
      "name": "ExpandPoint",
      "outputs": [
        {
          "name": "Pout",
          "type": "uint256[2]"
        }
      ],
      "payable": false,
      "stateMutability": "view",
      "type": "function"
    },
    {
      "constant": true,
      "inputs": [
        {
          "name": "message",
          "type": "bytes"
        },
        {
          "name": "data",
          "type": "uint256[]"
        }
      ],
      "name": "RingSign_User",
      "outputs": [
        {
          "name": "signature",
          "type": "uint256[32]"
        }
      ],
      "payable": false,
      "stateMutability": "view",
      "type": "function"
    },
    {
      "constant": true,
      "inputs": [
        {
          "name": "message",
          "type": "bytes"
        },
        {
          "name": "signature",
          "type": "uint256[]"
        }
      ],
      "name": "RingVerify_User",
      "outputs": [
        {
          "name": "success",
          "type": "bool"
        }
      ],
      "payable": false,
      "stateMutability": "view",
      "type": "function"
    }
  ],
  "bytecode": "0x606060405234156200001057600080fd5b60008054600160a060020a03191633600160a060020a031617905560018080556002808055620000859190604080519081016040529190828260026020028201915b815481526020019060010190808311620000525750505050506200009c6401000000000262000e47176401000000009004565b620000959060039060026200022b565b50620002b5565b620000a66200026e565b60007f30644e72e131a029b85045b68181585d2833e84879b9709143e1f593f000000183516020850151604051918252602082015260409081019051908190039020811515620000f257fe5b0682525b8015156200013057620001188251640100000000620006df6200013f82021704565b602084019190915290508180516001019052620000f6565b81805160001901905250919050565b6000806000806000600080516020620012e18339815191528687099250600080516020620012e18339815191528684099250600080516020620012e1833981519152600384089250600080516020620012e183398151915291507f0c19139cb84c680a6e14116da060561765e05aa45a1c72a34f082305b61f3f52905060405160208152602080820152602060408201528360608201528160808201528260a082015260208160c083600060056107d05a03f1808015620002005762000205565b60c083fd5b50815196505050600080516020620012e183398151915285860983149350505050915091565b82600281019282156200025c579160200282015b828111156200025c5782518255916020019190600101906200023f565b506200026a92915062000295565b5090565b604080519081016040526002815b60008152602001906001900390816200027c5790505090565b620002b291905b808211156200026a57600081556001016200029c565b90565b61101c80620002c56000396000f30060606040526004361061011c5763ffffffff7c01000000000000000000000000000000000000000000000000000000006000350416630dbe671f8114610121578063105ae03a146101465780632428766e14610165578063418ee0561461018f5780634787f1a7146101a857806351e50bfb146101da5780635c660547146101f05780635da7f69e1461028157806366230bd9146102cf57806371b1c161146102ff57806371de37241461033b5780638b8fbd92146103795780638da5cb5b1461038c5780639216084d1461039f578063a867d0ca146103b5578063bb3140091461041d578063be26733c14610433578063c9e525df14610448578063e0e5ade71461045b578063e4613fef14610471578063e4bf28c11461051d575b600080fd5b341561012c57600080fd5b610134610530565b60405190815260200160405180910390f35b341561015157600080fd5b610134600160a060020a0360043516610554565b341561017057600080fd5b61017b600435610566565b604051901515815260200160405180910390f35b341561019a57600080fd5b61013460043560243561057b565b34156101b357600080fd5b6101be6004356105a9565b604051600160a060020a03909116815260200160405180910390f35b34156101e557600080fd5b6101346004356105e4565b34156101fb57600080fd5b61017b60046024813581810190830135806020601f82018190048102016040519081016040528181529291906020840183838082843782019150505050505091908035906020019082018035906020019080806020026020016040519081016040528093929190818152602001838360200280828437509496506105f695505050505050565b341561028c57600080fd5b610297600435610609565b6040518082604080838360005b838110156102bc5780820151838201526020016102a4565b5050505090500191505060405180910390f35b34156102da57600080fd5b6102e56004356106df565b604051918252151560208201526040908101905180910390f35b341561030a57600080fd5b61013460046044816002604080519081016040528092919082600260200280828437509395506107c4945050505050565b341561034657600080fd5b610297600460448160026040805190810160405280929190826002602002808284375093955050923592506107e6915050565b341561038457600080fd5b61013461083d565b341561039757600080fd5b6101be61084f565b34156103aa57600080fd5b61013460043561085e565b34156103c057600080fd5b61029760046044816002604080519081016040528092919082600260200280828437820191505050505091908060400190600280602002604051908101604052809291908260026020028082843750939550610872945050505050565b341561042857600080fd5b6101346004356108b8565b341561043e57600080fd5b6104466108c5565b005b341561045357600080fd5b610134610904565b341561046657600080fd5b61017b600435610916565b341561047c57600080fd5b61050260046024813581810190830135806020601f820181900481020160405190810160405281815292919060208401838380828437820191505050505050919080359060200190820180359060200190808060200260200160405190810160405280939291908181526020018383602002808284375094965061092b95505050505050565b604051808261040080838360008151838201526020016102a4565b341561052857600080fd5b61013461093d565b7f0c19139cb84c680a6e14116da060561765e05aa45a1c72a34f082305b61f3f5281565b60066020526000908152604090205481565b60086020526000908152604090205460ff1681565b60076020528160005260406000208181548110151561059657fe5b6000918252602090912001549150829050565b60006105b3610f6f565b6105bc83610609565b9050805160208201516040519182526020820152604090810190519081900390209392505050565b60096020526000908152604090205481565b60006106028383610945565b9392505050565b610611610f6f565b7f7fffffffffffffffffffffffffffffffffffffffffffffffffffffffffffffff8216815260008061064983825b60200201516106df565b925090508115156106675760008084528360015b60200201526106d8565b60ff60020a8416156106aa57806001166001141561068b57602083018190526106a5565b600080516020610fb183398151915281900383600161065d565b6106d8565b80600116600114156106d057600080516020610fb183398151915281900383600161065d565b602083018190525b5050919050565b6000806000806000600080516020610fb18339815191528687099250600080516020610fb18339815191528684099250600080516020610fb1833981519152600384089250600080516020610fb183398151915291507f0c19139cb84c680a6e14116da060561765e05aa45a1c72a34f082305b61f3f52905060405160208152602080820152602060408201528360608201528160808201528260a082015260208160c083600060056107d05a03f180801561079a5761079f565b60c083fd5b50815196505050600080516020610fb183398151915285860983149350505050915091565b6000815190506020820151600116600114156107e15760ff60020a175b919050565b6107ee610f6f565b6040518351815260208401516020820152826040820152604081606083600060076107d05a03f180801561082157610826565b608083fd5b508151835260208201516020840152505092915050565b600080516020610fb183398151915281565b600054600160a060020a031681565b6001816002811061086b57fe5b0154905081565b61087a610f6f565b60405183518152602084015160208201528251604082015260208301516060820152604081608083600060066107d05a03f180801561082157610826565b6003816002811061086b57fe5b60005433600160a060020a039081169116148015906108ee5750600054600160a060020a031615155b156108f857600080fd5b33600160a060020a0316ff5b600080516020610fd183398151915281565b60056020526000908152604090205460ff1681565b610933610f95565b6106028383610a49565b60ff60020a81565b600061094f610f6f565b610957610f6f565b600080600060068751101561096b57600080fd5b6002875181151561097857fe5b061561098357600080fd5b8660018151811061099057fe5b9060200190602002015192506109bb876000815181106109ac57fe5b90602001906020020151610609565b9350600091506002808851038115156109d057fe5b0490505b80821015610a24576109f087838360020101815181106109ac57fe5b9450610a178884898560020181518110610a0657fe5b906020019060200201518888610cb6565b92508160010191506109d4565b86600181518110610a3157fe5b90602001906020020151909214979650505050505050565b610a51610f95565b600080610a5c610f6f565b610a64610f6f565b6000600687511015610a7557600080fd5b602087511115610a8457600080fd5b60028751811515610a9157fe5b0615610a9c57600080fd5b600280885103811515610aab57fe5b049450600293505b8651841015610aee57868481518110610ac857fe5b90602001906020020151868560208110610ade57fe5b6020020152600190930192610ab3565b8487600081518110610afc57fe5b90602001906020020151600101811515610b1257fe5b069350610b3f8788600081518110610b2657fe5b906020019060200201518760020101815181106109ac57fe5b9250610b6187600181518110610b5157fe5b9060200190602002015184610d7b565b9150610b6c826107c4565b8652610ba7888880600081518110610b8057fe5b9060200190602002015160020181518110610b9757fe5b9060200190602002015185610d98565b9050831515610bb857602086018190525b86600081518110610bc557fe5b906020019060200201518414610c3157610be987858760020101815181106109ac57fe5b9250610c108882898760020181518110610bff57fe5b906020019060200201518686610cb6565b905083600101935084841415610c2c5760208601819052600093505b610bb8565b610c808788600081518110610c4257fe5b9060200190602002015160020181518110610c5957fe5b906020019060200201518289600181518110610c7157fe5b90602001906020020151610e14565b8688600081518110610c8e57fe5b9060200190602002015160020160208110610ca557fe5b602002015250939695505050505050565b6000610cc0610f6f565b610cc8610f6f565b610cd0610f6f565b8551602087015160208401528252610ce782610e47565b9050610cf382896107e6565b9150610d3160016002604080519081016040529190828260026020028201915b815481526020019060010190808311610d13575050505050886107e6565b9250610d3d8284610872565b9150610d4981886107e6565b9050610d5585896107e6565b9250610d618184610872565b9050610d6e898383610ec4565b9998505050505050505050565b610d83610f6f565b610d8c82610e47565b905061060281846107e6565b6000610da2610f6f565b610daa610f6f565b610db384610e47565b9050610dbf81866107e6565b9050610dfd60016002604080519081016040529190828260026020028201915b815481526020019060010190808311610ddf575050505050866107e6565b9150610e0a868383610ec4565b9695505050505050565b6000600080516020610fd1833981519152828409600080516020610fd18339815191529081039150818508949350505050565b610e4f610f6f565b6000600080516020610fd183398151915283516020850151604051918252602082015260409081019051908190039020811515610e8857fe5b0682525b801515610eb557610e9e82600061063f565b602084019190915290508180516001019052610e8c565b81805160001901905250919050565b6000600080516020610fd18339815191528484516020860151855160208701516040518086805190602001908083835b60208310610f135780518252601f199092019160209182019101610ef4565b6001836020036101000a03801982511681845116808217855250505050505090500185815260200184815260200183815260200182815260200195505050505050604051908190039020811515610f6657fe5b06949350505050565b604080519081016040526002815b6000815260200190600190039081610f7d5790505090565b61040060405190810160405260008152601f60208201610f7d560030644e72e131a029b85045b68181585d97816a916871ca8d3c208c16d87cfd4730644e72e131a029b85045b68181585d2833e84879b9709143e1f593f0000001a165627a7a723058200f4cd5f2940b11dc079ec83399d0f8c57cb2394d2b96f79cb7302cf59f63b86d002930644e72e131a029b85045b68181585d97816a916871ca8d3c208c16d87cfd47",
  "source": "pragma solidity ^0.4.17;\r\n\r\n/**\r\n * @author /u/ANDREWTHEPLEB@Reddit\r\n */\r\ncontract RingMixerV2 {\r\n    //Debug Code\r\n    address public owner;\r\n    function RingMixerV2() public {\r\n        //Debug Code\r\n        owner = msg.sender;\r\n\r\n        G1[0] = 1;\r\n        G1[1] = 2;\r\n        H = HashPoint(G1);\r\n    }\r\n\r\n    function Kill() public {\r\n        if ( (msg.sender != owner) && (owner != 0) ) revert();\r\n\r\n        selfdestruct(msg.sender);\r\n    }\r\n\r\n    //alt_bn128 constants\r\n    uint256[2] public G1;\r\n    uint256[2] public H;\r\n    uint256 constant public N = 0x30644e72e131a029b85045b68181585d2833e84879b9709143e1f593f0000001;\r\n    uint256 constant public P = 0x30644e72e131a029b85045b68181585d97816a916871ca8d3c208c16d87cfd47;\r\n\r\n    //Used for Point Compression/Decompression\r\n    uint256 constant public ECSignMask = 0x8000000000000000000000000000000000000000000000000000000000000000;\r\n    uint256 constant public a = 0xc19139cb84c680a6e14116da060561765e05aa45a1c72a34f082305b61f3f52; // (p+1)/4\r\n\r\n    //Storage of Spent Key Images\r\n    mapping (uint256 => bool) public KeyImageUsed;\r\n\r\n    //Storage of Token Balances\r\n    mapping (address => uint256) public token_balance;\r\n\r\n    //Convenience tables for looking up acceptable mix-in keys\r\n    mapping (uint256 => uint256[]) public lookup_pubkey_by_balance;\r\n    mapping (uint256 => bool) public lookup_pubkey_by_balance_populated;\r\n    mapping (uint256 => uint256) public lookup_pubkey_by_balance_count;\r\n\r\n    //Address Functions - Convert compressed public key into RingMixer address\r\n    function GetAddress(uint256 PubKey)\r\n        public constant returns (address addr)\r\n    {\r\n        uint256[2] memory temp;\r\n        temp = ExpandPoint(PubKey);\r\n        addr = address( keccak256(temp[0], temp[1]) );\r\n    }\r\n\r\n    //Base EC Functions\r\n    function ecAdd(uint256[2] p0, uint256[2] p1)\r\n        public constant returns (uint256[2] p2)\r\n    {\r\n        assembly {\r\n            //Get Free Memory Pointer\r\n            let p := mload(0x40)\r\n\r\n            //Store Data for ECAdd Call\r\n            mstore(p, mload(p0))\r\n            mstore(add(p, 0x20), mload(add(p0, 0x20)))\r\n            mstore(add(p, 0x40), mload(p1))\r\n            mstore(add(p, 0x60), mload(add(p1, 0x20)))\r\n\r\n            //Call ECAdd\r\n            let success := call(sub(gas, 2000), 0x06, 0, p, 0x80, p, 0x40)\r\n\r\n            // Use \"invalid\" to make gas estimation work\r\n \t\t\tswitch success case 0 { revert(p, 0x80) }\r\n\r\n \t\t\t//Store Return Data\r\n \t\t\tmstore(p2, mload(p))\r\n \t\t\tmstore(add(p2, 0x20), mload(add(p,0x20)))\r\n        }\r\n    }\r\n\r\n    function ecMul(uint256[2] p0, uint256 s)\r\n        public constant returns (uint256[2] p1)\r\n    {\r\n        assembly {\r\n            //Get Free Memory Pointer\r\n            let p := mload(0x40)\r\n\r\n            //Store Data for ECMul Call\r\n            mstore(p, mload(p0))\r\n            mstore(add(p, 0x20), mload(add(p0, 0x20)))\r\n            mstore(add(p, 0x40), s)\r\n\r\n            //Call ECAdd\r\n            let success := call(sub(gas, 2000), 0x07, 0, p, 0x60, p, 0x40)\r\n\r\n            // Use \"invalid\" to make gas estimation work\r\n \t\t\tswitch success case 0 { revert(p, 0x80) }\r\n\r\n \t\t\t//Store Return Data\r\n \t\t\tmstore(p1, mload(p))\r\n \t\t\tmstore(add(p1, 0x20), mload(add(p,0x20)))\r\n        }\r\n    }\r\n\r\n    function CompressPoint(uint256[2] Pin)\r\n        public pure returns (uint256 Pout)\r\n    {\r\n        //Store x value\r\n        Pout = Pin[0];\r\n\r\n        //Determine Sign\r\n        if ((Pin[1] & 0x1) == 0x1) {\r\n            Pout |= ECSignMask;\r\n        }\r\n    }\r\n\r\n    function EvaluateCurve(uint256 x)\r\n        public constant returns (uint256 y, bool onCurve)\r\n    {\r\n        uint256 y_squared = mulmod(x,x, P);\r\n        y_squared = mulmod(y_squared, x, P);\r\n        y_squared = addmod(y_squared, 3, P);\r\n\r\n        uint256 p_local = P;\r\n        uint256 a_local = a;\r\n\r\n        assembly {\r\n            //Get Free Memory Pointer\r\n            let p := mload(0x40)\r\n\r\n            //Store Data for Big Int Mod Exp Call\r\n            mstore(p, 0x20)                 //Length of Base\r\n            mstore(add(p, 0x20), 0x20)      //Length of Exponent\r\n            mstore(add(p, 0x40), 0x20)      //Length of Modulus\r\n            mstore(add(p, 0x60), y_squared) //Base\r\n            mstore(add(p, 0x80), a_local)   //Exponent\r\n            mstore(add(p, 0xA0), p_local)   //Modulus\r\n\r\n            //Call Big Int Mod Exp\r\n            let success := call(sub(gas, 2000), 0x05, 0, p, 0xC0, p, 0x20)\r\n\r\n            // Use \"invalid\" to make gas estimation work\r\n \t\t\tswitch success case 0 { revert(p, 0xC0) }\r\n\r\n \t\t\t//Store Return Data\r\n \t\t\ty := mload(p)\r\n        }\r\n\r\n        //Check Answer\r\n        onCurve = (y_squared == mulmod(y, y, P));\r\n    }\r\n\r\n    function ExpandPoint(uint256 Pin)\r\n        public constant returns (uint256[2] Pout)\r\n    {\r\n        //Get x value (mask out sign bit)\r\n        Pout[0] = Pin & (~ECSignMask);\r\n\r\n        //Get y value\r\n        bool onCurve;\r\n        uint256 y;\r\n        (y, onCurve) = EvaluateCurve(Pout[0]);\r\n\r\n        //TODO: Find better failure case for point not on curve\r\n        if (!onCurve) {\r\n            Pout[0] = 0;\r\n            Pout[1] = 0;\r\n        }\r\n        else {\r\n            //Use Positive Y\r\n            if ((Pin & ECSignMask) != 0) {\r\n                if ((y & 0x1) == 0x1) {\r\n                    Pout[1] = y;\r\n                } else {\r\n                    Pout[1] = P - y;\r\n                }\r\n            }\r\n            //Use Negative Y\r\n            else {\r\n                if ((y & 0x1) == 0x1) {\r\n                    Pout[1] = P - y;\r\n                } else {\r\n                    Pout[1] = y;\r\n                }\r\n            }\r\n        }\r\n    }\r\n\r\n    //=====Ring Signature Functions=====\r\n    function HashFunction(bytes message, uint256[2] left, uint256[2] right)\r\n        internal pure returns (uint256 h)\r\n    {\r\n        return (uint256(keccak256(message, left[0], left[1], right[0], right[1])) % N);\r\n    }\r\n\r\n    //Return H = alt_bn128 evaluated at keccak256(p)\r\n    function HashPoint(uint256[2] p)\r\n        internal constant returns (uint256[2] h)\r\n    {\r\n        bool onCurve;\r\n        h[0] = uint256(keccak256(p[0], p[1])) % N;\r\n\r\n        while(!onCurve) {\r\n            (h[1], onCurve) = EvaluateCurve(h[0]);\r\n            h[0]++;\r\n        }\r\n        h[0]--;\r\n    }\r\n\r\n    function KeyImage(uint256 xk, uint256[2] Pk)\r\n        internal constant returns (uint256[2] Ix)\r\n    {\r\n        //Ix = xk * HashPoint(Pk)\r\n        Ix = HashPoint(Pk);\r\n        Ix = ecMul(Ix, xk);\r\n    }\r\n\r\n    function RingStartingSegment(bytes message, uint256 alpha, uint256[2] P0)\r\n        internal constant returns (uint256 c0)\r\n    {\r\n        //Memory Registers\r\n        uint256[2] memory left;\r\n        uint256[2] memory right;\r\n\r\n        right = HashPoint(P0);\r\n        right = ecMul(right, alpha);\r\n        left = ecMul(G1, alpha);\r\n\r\n        c0 = HashFunction(message, left, right);\r\n    }\r\n\r\n    function RingSegment(bytes message, uint256 c0, uint256 s0, uint256[2] P0, uint256[2] Ix)\r\n        internal constant returns (uint256 c1)\r\n    {\r\n        //Memory Registers\r\n        uint256[2] memory temp;\r\n        uint256[2] memory left;\r\n        uint256[2] memory right;\r\n\r\n        //Deserialize Point\r\n        (left[0], left[1]) = (P0[0], P0[1]);\r\n        right = HashPoint(left);\r\n\r\n        //Calculate left = c*P0 + s0*G1)\r\n        left = ecMul(left, c0);\r\n        temp = ecMul(G1, s0);\r\n        left = ecAdd(left, temp);\r\n\r\n        //Calculate right = s0*H(P0) + c*Ix\r\n        right = ecMul(right, s0);\r\n        temp = ecMul(Ix, c0);\r\n        right = ecAdd(right, temp);\r\n\r\n        c1 = HashFunction(message, left, right);\r\n    }\r\n\r\n    //SubMul = (alpha - c*xk) % N\r\n    function SubMul(uint256 alpha, uint256 c, uint256 xk)\r\n        internal pure returns (uint256 s)\r\n    {\r\n        s = mulmod(c, xk, N);\r\n        s = N - s;\r\n        s = addmod(alpha, s, N);\r\n    }\r\n\r\n    //=== RingSignatureN ===\r\n    //Inputs:\r\n    //  message (bytes) - to be signed by the ring signature\r\n    //  data (uint256[2*N+2]) - required data to form the signature where N is the number of Public Keys (ring size)\r\n    //      data[0] - index from 0 to (N-1) specifying which Public Key has a known private key\r\n    //      data[1] - corrosponding private key for PublicKey[k]\r\n    //      data[2   ... 2+(N-1)] - Random Numbers - total of N random numbers\r\n    //      data[2+N ... 2*N+1  ] - Public Keys (compressed) - total of N Public Keys\r\n    //      e.g. N=3; data = {k, PrivateKey_k, random0, random1, random2, PubKey0, PubKey1, PubKey2 }\r\n    //\r\n    //Outputs:\r\n    //  signature (uint256[32]) - resulting signature\r\n    //      signature[0] - keyimage for private key (compressed)\r\n    //      signature[1] - c0 - start of ring signature - scaler for PublicKey[0]\r\n    //      signature[2     ... 2+(N-1)] - s0...s[N-1], scalar for G1\r\n    //      signature[2+N   ... 2*N+1  ] - Public Keys (compressed) - total of N Public Keys\r\n    //      signature[2*N+2 ... 31     ] - Padding (0)\r\n    //      e.g. N=3; signature = { Ik, c0, s0, s1, s2, PubKey0, PubKey1, PubKey2 }\r\n    function RingSign(bytes message, uint256[] data)\r\n        internal constant returns (uint256[32] signature)\r\n    {\r\n        //Check Array Lengths\r\n        require( data.length >= 6 ); //Minimum size (2 PubKeys) = (2*2+2) = 6\r\n        require( data.length <= 32); //Max size - will only output 32 uint256's\r\n        require( (data.length % 2) == 0 ); //data.length must be even\r\n        uint256 ring_size = (data.length - 2) / 2;\r\n        uint i;\r\n\r\n        //Copy Random Numbers (most will become s-values) and Public Keys\r\n        for (i = 2; i < data.length; i++) {\r\n            signature[i] = data[i];\r\n        }\r\n\r\n        //Memory Registers\r\n        uint256[2] memory pubkey;\r\n        uint256[2] memory keyimage;\r\n        uint256 c;\r\n\r\n        //Setup Indices\r\n        i = (data[0] + 1) % ring_size;\r\n\r\n        //Calculate Key Image\r\n        pubkey = ExpandPoint(data[2+ring_size+data[0]]);\r\n        keyimage = KeyImage(data[1], pubkey);\r\n        signature[0] = CompressPoint(keyimage);\r\n\r\n        //Calculate Starting c = hash( message, alpha*G1, alpha*HashPoint(Pk) )\r\n        c = RingStartingSegment(message, data[2+data[0]], pubkey);\r\n        if (i == 0) {\r\n            signature[1] = c;\r\n        }\r\n\r\n        for (; i != data[0];) {\r\n            //Deserialize Point and calculate next Ring Segment\r\n            pubkey = ExpandPoint(data[2+ring_size+i]);\r\n\r\n            c = RingSegment(message, c, data[2+i], pubkey, keyimage);\r\n\r\n            //Increment Counters\r\n            i = i + 1;\r\n\r\n            // Roll counters over\r\n            if (i == ring_size) {\r\n                i = 0;\r\n                signature[1] = c;\r\n            }\r\n        }\r\n\r\n        //Calculate s s.t. alpha*G1 = c1*P1 + s1*G1 = (c1*x1 + s1) * G1\r\n        //s = alpha - c1*x1\r\n        signature[2+data[0]] = SubMul(data[2+data[0]], c, data[1]);\r\n    }\r\n\r\n    function RingSign_User(bytes message, uint256[] data)\r\n        public constant returns (uint256[32] signature)\r\n    {\r\n        return RingSign(message, data);\r\n    }\r\n\r\n    //=== RingVerifyN ===\r\n    //Inputs:\r\n    //  message (bytes) - signed by the ring signature\r\n    //  signature (uint256[2*N+2]) - ring signature\r\n    //      signature[0] - keyimage for private key (compressed)\r\n    //      signature[1] - c0 - start of ring signature - scaler for PublicKey[0]\r\n    //      signature[2     ... 2+(N-1)] - s0...s[N-1], scalar for G1\r\n    //      signature[2+N   ... 2*N+1  ] - Public Keys (compressed) - total of N Public Keys\r\n    //      signature[2*N+2 ... 31     ] - Padding (0)\r\n    //      e.g. N=3; signature = { Ik, c0, s0, s1, s2, PubKey0, PubKey1, PubKey2 }\r\n    //Outputs:\r\n    //  success (bool) - true/false indicating if signature is valid on message\r\n    function RingVerify(bytes message, uint256[] signature)\r\n        internal constant returns (bool success)\r\n    {\r\n        //Check Array Lengths\r\n        require( signature.length >= 6 ); //Minimum size (2 PubKeys) = (2*2+2) = 6\r\n        require( (signature.length % 2) == 0 ); //data.length must be even\r\n\r\n        //Memory Registers\r\n        uint256[2] memory pubkey;\r\n        uint256[2] memory keyimage;\r\n        uint256 c = signature[1];\r\n\r\n        //Expand Key Image\r\n        keyimage = ExpandPoint(signature[0]);\r\n\r\n        //Verify Ring\r\n        uint i = 0;\r\n        uint256 ring_size = (signature.length - 2) / 2;\r\n        for (; i < ring_size;) {\r\n            //Deserialize Point and calculate next Ring Segment\r\n            pubkey = ExpandPoint(signature[2+ring_size+i]);\r\n            c = RingSegment(message, c, signature[2+i], pubkey, keyimage);\r\n\r\n            //Increment Counters\r\n            i = i + 1;\r\n        }\r\n\r\n        success = (c == signature[1]);\r\n    }\r\n\r\n    function RingVerify_User(bytes message, uint256[] signature)\r\n        public constant returns (bool success)\r\n    {\r\n        return RingVerify(message, signature);\r\n    }\r\n}\r\n",
  "sourcePath": "D:\\msi-cn\\Documents\\GitHub\\ethdenver\\contracts\\RingSig.sol",
  "compiler": {
    "name": "solc",
    "version": "0.4.19+commit.c4cbbb05.Emscripten.clang"
  },
  "schemaVersion": "1.0.1",
  "updatedAt": "2018-02-18T06:46:17.649Z"
}